{
	"Day5.sol": {
		"Day5": {
			"abi": [
				{
					"inputs": [
						{
							"internalType": "uint256",
							"name": "n",
							"type": "uint256"
						}
					],
					"name": "EvenUpTo",
					"outputs": [
						{
							"internalType": "uint256",
							"name": "",
							"type": "uint256"
						}
					],
					"stateMutability": "pure",
					"type": "function"
				},
				{
					"inputs": [
						{
							"internalType": "uint256",
							"name": "age",
							"type": "uint256"
						}
					],
					"name": "ageBasedAccess",
					"outputs": [
						{
							"internalType": "string",
							"name": "",
							"type": "string"
						}
					],
					"stateMutability": "pure",
					"type": "function"
				},
				{
					"inputs": [
						{
							"internalType": "uint256",
							"name": "grade",
							"type": "uint256"
						}
					],
					"name": "gradeEval",
					"outputs": [
						{
							"internalType": "string",
							"name": "",
							"type": "string"
						}
					],
					"stateMutability": "pure",
					"type": "function"
				},
				{
					"inputs": [
						{
							"internalType": "uint256",
							"name": "speed",
							"type": "uint256"
						}
					],
					"name": "speedChecker",
					"outputs": [
						{
							"internalType": "string",
							"name": "",
							"type": "string"
						}
					],
					"stateMutability": "pure",
					"type": "function"
				},
				{
					"inputs": [
						{
							"internalType": "uint256",
							"name": "n",
							"type": "uint256"
						}
					],
					"name": "sum",
					"outputs": [
						{
							"internalType": "uint256",
							"name": "",
							"type": "uint256"
						}
					],
					"stateMutability": "pure",
					"type": "function"
				},
				{
					"inputs": [
						{
							"internalType": "int256",
							"name": "temp",
							"type": "int256"
						}
					],
					"name": "temperatureChecker",
					"outputs": [
						{
							"internalType": "string",
							"name": "",
							"type": "string"
						}
					],
					"stateMutability": "pure",
					"type": "function"
				}
			],
			"devdoc": {
				"kind": "dev",
				"methods": {},
				"version": 1
			},
			"evm": {
				"assembly": "    /* \"Day5.sol\":62:1883  contract Day5{... */\n  mstore(0x40, 0x80)\n  callvalue\n  dup1\n  iszero\n  tag_1\n  jumpi\n  revert(0x00, 0x00)\ntag_1:\n  pop\n  dataSize(sub_0)\n  dup1\n  dataOffset(sub_0)\n  0x00\n  codecopy\n  0x00\n  return\nstop\n\nsub_0: assembly {\n        /* \"Day5.sol\":62:1883  contract Day5{... */\n      mstore(0x40, 0x80)\n      callvalue\n      dup1\n      iszero\n      tag_1\n      jumpi\n      revert(0x00, 0x00)\n    tag_1:\n      pop\n      jumpi(tag_2, lt(calldatasize, 0x04))\n      shr(0xe0, calldataload(0x00))\n      dup1\n      0x12b8396b\n      eq\n      tag_3\n      jumpi\n      dup1\n      0x18794df5\n      eq\n      tag_4\n      jumpi\n      dup1\n      0x188b85b4\n      eq\n      tag_5\n      jumpi\n      dup1\n      0x8e4198ba\n      eq\n      tag_6\n      jumpi\n      dup1\n      0xa655916d\n      eq\n      tag_7\n      jumpi\n      dup1\n      0xcc04364c\n      eq\n      tag_8\n      jumpi\n    tag_2:\n      revert(0x00, 0x00)\n        /* \"Day5.sol\":453:848  function gradeEval(uint grade) public pure returns(string memory){... */\n    tag_3:\n      tag_9\n      0x04\n      dup1\n      calldatasize\n      sub\n      dup2\n      add\n      swap1\n      tag_10\n      swap2\n      swap1\n      tag_11\n      jump\t// in\n    tag_10:\n      tag_12\n      jump\t// in\n    tag_9:\n      mload(0x40)\n      tag_13\n      swap2\n      swap1\n      tag_14\n      jump\t// in\n    tag_13:\n      mload(0x40)\n      dup1\n      swap2\n      sub\n      swap1\n      return\n        /* \"Day5.sol\":1706:1876  function EvenUpTo(uint n) public pure returns(uint) {... */\n    tag_4:\n      tag_15\n      0x04\n      dup1\n      calldatasize\n      sub\n      dup2\n      add\n      swap1\n      tag_16\n      swap2\n      swap1\n      tag_11\n      jump\t// in\n    tag_16:\n      tag_17\n      jump\t// in\n    tag_15:\n      mload(0x40)\n      tag_18\n      swap2\n      swap1\n      tag_19\n      jump\t// in\n    tag_18:\n      mload(0x40)\n      dup1\n      swap2\n      sub\n      swap1\n      return\n        /* \"Day5.sol\":1513:1674  function sum(uint n) public pure returns(uint) {... */\n    tag_5:\n      tag_20\n      0x04\n      dup1\n      calldatasize\n      sub\n      dup2\n      add\n      swap1\n      tag_21\n      swap2\n      swap1\n      tag_11\n      jump\t// in\n    tag_21:\n      tag_22\n      jump\t// in\n    tag_20:\n      mload(0x40)\n      tag_23\n      swap2\n      swap1\n      tag_19\n      jump\t// in\n    tag_23:\n      mload(0x40)\n      dup1\n      swap2\n      sub\n      swap1\n      return\n        /* \"Day5.sol\":104:417  function temperatureChecker(int temp) public pure returns(string memory){... */\n    tag_6:\n      tag_24\n      0x04\n      dup1\n      calldatasize\n      sub\n      dup2\n      add\n      swap1\n      tag_25\n      swap2\n      swap1\n      tag_26\n      jump\t// in\n    tag_25:\n      tag_27\n      jump\t// in\n    tag_24:\n      mload(0x40)\n      tag_28\n      swap2\n      swap1\n      tag_14\n      jump\t// in\n    tag_28:\n      mload(0x40)\n      dup1\n      swap2\n      sub\n      swap1\n      return\n        /* \"Day5.sol\":1160:1496  function ageBasedAccess(uint age) public pure returns(string memory){... */\n    tag_7:\n      tag_29\n      0x04\n      dup1\n      calldatasize\n      sub\n      dup2\n      add\n      swap1\n      tag_30\n      swap2\n      swap1\n      tag_11\n      jump\t// in\n    tag_30:\n      tag_31\n      jump\t// in\n    tag_29:\n      mload(0x40)\n      tag_32\n      swap2\n      swap1\n      tag_14\n      jump\t// in\n    tag_32:\n      mload(0x40)\n      dup1\n      swap2\n      sub\n      swap1\n      return\n        /* \"Day5.sol\":891:1133  function speedChecker(uint speed) public pure returns(string memory){... */\n    tag_8:\n      tag_33\n      0x04\n      dup1\n      calldatasize\n      sub\n      dup2\n      add\n      swap1\n      tag_34\n      swap2\n      swap1\n      tag_11\n      jump\t// in\n    tag_34:\n      tag_35\n      jump\t// in\n    tag_33:\n      mload(0x40)\n      tag_36\n      swap2\n      swap1\n      tag_14\n      jump\t// in\n    tag_36:\n      mload(0x40)\n      dup1\n      swap2\n      sub\n      swap1\n      return\n        /* \"Day5.sol\":453:848  function gradeEval(uint grade) public pure returns(string memory){... */\n    tag_12:\n        /* \"Day5.sol\":504:517  string memory */\n      0x60\n        /* \"Day5.sol\":542:544  70 */\n      0x46\n        /* \"Day5.sol\":536:541  grade */\n      dup3\n        /* \"Day5.sol\":536:544  grade<70 */\n      lt\n        /* \"Day5.sol\":533:837  if(grade<70){... */\n      iszero\n      tag_38\n      jumpi\n        /* \"Day5.sol\":564:574  return \"F\" */\n      mload(0x40)\n      dup1\n      0x40\n      add\n      0x40\n      mstore\n      dup1\n      0x01\n      dup2\n      mstore\n      0x20\n      add\n      0x4600000000000000000000000000000000000000000000000000000000000000\n      dup2\n      mstore\n      pop\n      swap1\n      pop\n      jump(tag_37)\n        /* \"Day5.sol\":533:837  if(grade<70){... */\n    tag_38:\n        /* \"Day5.sol\":620:622  70 */\n      0x46\n        /* \"Day5.sol\":613:618  grade */\n      dup3\n        /* \"Day5.sol\":613:622  grade>=70 */\n      lt\n      iszero\n        /* \"Day5.sol\":612:636  (grade>=70)&&(grade<=79) */\n      dup1\n      iszero\n      tag_40\n      jumpi\n      pop\n        /* \"Day5.sol\":633:635  79 */\n      0x4f\n        /* \"Day5.sol\":626:631  grade */\n      dup3\n        /* \"Day5.sol\":626:635  grade<=79 */\n      gt\n      iszero\n        /* \"Day5.sol\":612:636  (grade>=70)&&(grade<=79) */\n    tag_40:\n        /* \"Day5.sol\":609:837  if((grade>=70)&&(grade<=79)){... */\n      iszero\n      tag_41\n      jumpi\n        /* \"Day5.sol\":656:666  return \"C\" */\n      mload(0x40)\n      dup1\n      0x40\n      add\n      0x40\n      mstore\n      dup1\n      0x01\n      dup2\n      mstore\n      0x20\n      add\n      0x4300000000000000000000000000000000000000000000000000000000000000\n      dup2\n      mstore\n      pop\n      swap1\n      pop\n      jump(tag_37)\n        /* \"Day5.sol\":609:837  if((grade>=70)&&(grade<=79)){... */\n    tag_41:\n        /* \"Day5.sol\":712:714  80 */\n      0x50\n        /* \"Day5.sol\":705:710  grade */\n      dup3\n        /* \"Day5.sol\":705:714  grade>=80 */\n      lt\n      iszero\n        /* \"Day5.sol\":704:728  (grade>=80)&&(grade<=89) */\n      dup1\n      iszero\n      tag_43\n      jumpi\n      pop\n        /* \"Day5.sol\":725:727  89 */\n      0x59\n        /* \"Day5.sol\":718:723  grade */\n      dup3\n        /* \"Day5.sol\":718:727  grade<=89 */\n      gt\n      iszero\n        /* \"Day5.sol\":704:728  (grade>=80)&&(grade<=89) */\n    tag_43:\n        /* \"Day5.sol\":701:837  if((grade>=80)&&(grade<=89)){... */\n      iszero\n      tag_44\n      jumpi\n        /* \"Day5.sol\":748:758  return \"B\" */\n      mload(0x40)\n      dup1\n      0x40\n      add\n      0x40\n      mstore\n      dup1\n      0x01\n      dup2\n      mstore\n      0x20\n      add\n      0x4200000000000000000000000000000000000000000000000000000000000000\n      dup2\n      mstore\n      pop\n      swap1\n      pop\n      jump(tag_37)\n        /* \"Day5.sol\":701:837  if((grade>=80)&&(grade<=89)){... */\n    tag_44:\n        /* \"Day5.sol\":811:821  return \"A\" */\n      mload(0x40)\n      dup1\n      0x40\n      add\n      0x40\n      mstore\n      dup1\n      0x01\n      dup2\n      mstore\n      0x20\n      add\n      0x4100000000000000000000000000000000000000000000000000000000000000\n      dup2\n      mstore\n      pop\n      swap1\n      pop\n        /* \"Day5.sol\":453:848  function gradeEval(uint grade) public pure returns(string memory){... */\n    tag_37:\n      swap2\n      swap1\n      pop\n      jump\t// out\n        /* \"Day5.sol\":1706:1876  function EvenUpTo(uint n) public pure returns(uint) {... */\n    tag_17:\n        /* \"Day5.sol\":1752:1756  uint */\n      0x00\n        /* \"Day5.sol\":1765:1775  uint total */\n      0x00\n        /* \"Day5.sol\":1778:1779  0 */\n      0x00\n        /* \"Day5.sol\":1765:1779  uint total = 0 */\n      swap1\n      pop\n        /* \"Day5.sol\":1793:1799  uint i */\n      0x00\n        /* \"Day5.sol\":1802:1803  2 */\n      0x02\n        /* \"Day5.sol\":1793:1803  uint i = 2 */\n      swap1\n      pop\n        /* \"Day5.sol\":1788:1850  for (uint i = 2; i <= n; i += 2) {... */\n    tag_47:\n        /* \"Day5.sol\":1810:1811  n */\n      dup4\n        /* \"Day5.sol\":1805:1806  i */\n      dup2\n        /* \"Day5.sol\":1805:1811  i <= n */\n      gt\n        /* \"Day5.sol\":1788:1850  for (uint i = 2; i <= n; i += 2) {... */\n      tag_48\n      jumpi\n        /* \"Day5.sol\":1841:1842  i */\n      dup1\n        /* \"Day5.sol\":1832:1842  total += i */\n      dup3\n      tag_50\n      swap2\n      swap1\n      tag_51\n      jump\t// in\n    tag_50:\n      swap2\n      pop\n        /* \"Day5.sol\":1818:1819  2 */\n      0x02\n        /* \"Day5.sol\":1813:1819  i += 2 */\n      dup2\n      tag_52\n      swap2\n      swap1\n      tag_51\n      jump\t// in\n    tag_52:\n      swap1\n      pop\n        /* \"Day5.sol\":1788:1850  for (uint i = 2; i <= n; i += 2) {... */\n      jump(tag_47)\n    tag_48:\n      pop\n        /* \"Day5.sol\":1867:1872  total */\n      dup1\n        /* \"Day5.sol\":1860:1872  return total */\n      swap2\n      pop\n      pop\n        /* \"Day5.sol\":1706:1876  function EvenUpTo(uint n) public pure returns(uint) {... */\n      swap2\n      swap1\n      pop\n      jump\t// out\n        /* \"Day5.sol\":1513:1674  function sum(uint n) public pure returns(uint) {... */\n    tag_22:\n        /* \"Day5.sol\":1554:1558  uint */\n      0x00\n        /* \"Day5.sol\":1567:1577  uint total */\n      0x00\n        /* \"Day5.sol\":1580:1581  0 */\n      0x00\n        /* \"Day5.sol\":1567:1581  uint total = 0 */\n      swap1\n      pop\n        /* \"Day5.sol\":1595:1601  uint i */\n      0x00\n        /* \"Day5.sol\":1604:1605  1 */\n      0x01\n        /* \"Day5.sol\":1595:1605  uint i = 1 */\n      swap1\n      pop\n        /* \"Day5.sol\":1590:1650  for (uint i = 1; i <= n; i ++) {... */\n    tag_54:\n        /* \"Day5.sol\":1612:1613  n */\n      dup4\n        /* \"Day5.sol\":1607:1608  i */\n      dup2\n        /* \"Day5.sol\":1607:1613  i <= n */\n      gt\n        /* \"Day5.sol\":1590:1650  for (uint i = 1; i <= n; i ++) {... */\n      tag_55\n      jumpi\n        /* \"Day5.sol\":1641:1642  i */\n      dup1\n        /* \"Day5.sol\":1632:1642  total += i */\n      dup3\n      tag_57\n      swap2\n      swap1\n      tag_51\n      jump\t// in\n    tag_57:\n      swap2\n      pop\n        /* \"Day5.sol\":1615:1619  i ++ */\n      dup1\n      dup1\n      tag_58\n      swap1\n      tag_59\n      jump\t// in\n    tag_58:\n      swap2\n      pop\n      pop\n        /* \"Day5.sol\":1590:1650  for (uint i = 1; i <= n; i ++) {... */\n      jump(tag_54)\n    tag_55:\n      pop\n        /* \"Day5.sol\":1665:1670  total */\n      dup1\n        /* \"Day5.sol\":1658:1670  return total */\n      swap2\n      pop\n      pop\n        /* \"Day5.sol\":1513:1674  function sum(uint n) public pure returns(uint) {... */\n      swap2\n      swap1\n      pop\n      jump\t// out\n        /* \"Day5.sol\":104:417  function temperatureChecker(int temp) public pure returns(string memory){... */\n    tag_27:\n        /* \"Day5.sol\":162:175  string memory */\n      0x60\n        /* \"Day5.sol\":200:201  0 */\n      0x00\n        /* \"Day5.sol\":194:198  temp */\n      dup3\n        /* \"Day5.sol\":194:201  temp<=0 */\n      sgt\n        /* \"Day5.sol\":191:406  if(temp<=0){... */\n      tag_61\n      jumpi\n        /* \"Day5.sol\":221:238  return \"Freezing\" */\n      mload(0x40)\n      dup1\n      0x40\n      add\n      0x40\n      mstore\n      dup1\n      0x08\n      dup2\n      mstore\n      0x20\n      add\n      0x467265657a696e67000000000000000000000000000000000000000000000000\n      dup2\n      mstore\n      pop\n      swap1\n      pop\n      jump(tag_60)\n        /* \"Day5.sol\":191:406  if(temp<=0){... */\n    tag_61:\n        /* \"Day5.sol\":283:286  100 */\n      0x64\n        /* \"Day5.sol\":276:280  temp */\n      dup3\n        /* \"Day5.sol\":276:286  temp >=100 */\n      slt\n        /* \"Day5.sol\":273:406  if(temp >=100){... */\n      tag_63\n      jumpi\n        /* \"Day5.sol\":306:322  return \"Boiling\" */\n      mload(0x40)\n      dup1\n      0x40\n      add\n      0x40\n      mstore\n      dup1\n      0x07\n      dup2\n      mstore\n      0x20\n      add\n      0x426f696c696e6700000000000000000000000000000000000000000000000000\n      dup2\n      mstore\n      pop\n      swap1\n      pop\n      jump(tag_60)\n        /* \"Day5.sol\":273:406  if(temp >=100){... */\n    tag_63:\n        /* \"Day5.sol\":375:390  return \"Normal\" */\n      mload(0x40)\n      dup1\n      0x40\n      add\n      0x40\n      mstore\n      dup1\n      0x06\n      dup2\n      mstore\n      0x20\n      add\n      0x4e6f726d616c0000000000000000000000000000000000000000000000000000\n      dup2\n      mstore\n      pop\n      swap1\n      pop\n        /* \"Day5.sol\":104:417  function temperatureChecker(int temp) public pure returns(string memory){... */\n    tag_60:\n      swap2\n      swap1\n      pop\n      jump\t// out\n        /* \"Day5.sol\":1160:1496  function ageBasedAccess(uint age) public pure returns(string memory){... */\n    tag_31:\n        /* \"Day5.sol\":1214:1227  string memory */\n      0x60\n        /* \"Day5.sol\":1250:1252  13 */\n      0x0d\n        /* \"Day5.sol\":1246:1249  age */\n      dup3\n        /* \"Day5.sol\":1246:1252  age<13 */\n      lt\n        /* \"Day5.sol\":1243:1483  if(age<13){... */\n      iszero\n      tag_66\n      jumpi\n        /* \"Day5.sol\":1272:1292  return \"Not allowed\" */\n      mload(0x40)\n      dup1\n      0x40\n      add\n      0x40\n      mstore\n      dup1\n      0x0b\n      dup2\n      mstore\n      0x20\n      add\n      0x4e6f7420616c6c6f776564000000000000000000000000000000000000000000\n      dup2\n      mstore\n      pop\n      swap1\n      pop\n      jump(tag_65)\n        /* \"Day5.sol\":1243:1483  if(age<13){... */\n    tag_66:\n        /* \"Day5.sol\":1338:1340  13 */\n      0x0d\n        /* \"Day5.sol\":1333:1336  age */\n      dup3\n        /* \"Day5.sol\":1333:1340  age>=13 */\n      lt\n      iszero\n        /* \"Day5.sol\":1332:1352  (age>=13)&&(age<=17) */\n      dup1\n      iszero\n      tag_68\n      jumpi\n      pop\n        /* \"Day5.sol\":1349:1351  17 */\n      0x11\n        /* \"Day5.sol\":1344:1347  age */\n      dup3\n        /* \"Day5.sol\":1344:1351  age<=17 */\n      gt\n      iszero\n        /* \"Day5.sol\":1332:1352  (age>=13)&&(age<=17) */\n    tag_68:\n        /* \"Day5.sol\":1329:1483  if((age>=13)&&(age<=17)){... */\n      iszero\n      tag_69\n      jumpi\n        /* \"Day5.sol\":1372:1398  return \"Guardian required\" */\n      mload(0x40)\n      dup1\n      0x40\n      add\n      0x40\n      mstore\n      dup1\n      0x11\n      dup2\n      mstore\n      0x20\n      add\n      0x477561726469616e207265717569726564000000000000000000000000000000\n      dup2\n      mstore\n      pop\n      swap1\n      pop\n      jump(tag_65)\n        /* \"Day5.sol\":1329:1483  if((age>=13)&&(age<=17)){... */\n    tag_69:\n        /* \"Day5.sol\":1451:1467  return \"Allowed\" */\n      mload(0x40)\n      dup1\n      0x40\n      add\n      0x40\n      mstore\n      dup1\n      0x07\n      dup2\n      mstore\n      0x20\n      add\n      0x416c6c6f77656400000000000000000000000000000000000000000000000000\n      dup2\n      mstore\n      pop\n      swap1\n      pop\n        /* \"Day5.sol\":1160:1496  function ageBasedAccess(uint age) public pure returns(string memory){... */\n    tag_65:\n      swap2\n      swap1\n      pop\n      jump\t// out\n        /* \"Day5.sol\":891:1133  function speedChecker(uint speed) public pure returns(string memory){... */\n    tag_35:\n        /* \"Day5.sol\":945:958  string memory */\n      0x60\n        /* \"Day5.sol\":983:986  100 */\n      0x64\n        /* \"Day5.sol\":977:982  speed */\n      dup3\n        /* \"Day5.sol\":977:986  speed<100 */\n      lt\n        /* \"Day5.sol\":974:1122  if(speed<100){... */\n      iszero\n      tag_72\n      jumpi\n        /* \"Day5.sol\":1007:1032  return \"Not overspeeding\" */\n      mload(0x40)\n      dup1\n      0x40\n      add\n      0x40\n      mstore\n      dup1\n      0x10\n      dup2\n      mstore\n      0x20\n      add\n      0x4e6f74206f7665727370656564696e6700000000000000000000000000000000\n      dup2\n      mstore\n      pop\n      swap1\n      pop\n      jump(tag_71)\n        /* \"Day5.sol\":974:1122  if(speed<100){... */\n    tag_72:\n        /* \"Day5.sol\":1085:1106  return \"Overspeeding\" */\n      mload(0x40)\n      dup1\n      0x40\n      add\n      0x40\n      mstore\n      dup1\n      0x0c\n      dup2\n      mstore\n      0x20\n      add\n      0x4f7665727370656564696e670000000000000000000000000000000000000000\n      dup2\n      mstore\n      pop\n      swap1\n      pop\n        /* \"Day5.sol\":891:1133  function speedChecker(uint speed) public pure returns(string memory){... */\n    tag_71:\n      swap2\n      swap1\n      pop\n      jump\t// out\n        /* \"#utility.yul\":88:205   */\n    tag_75:\n        /* \"#utility.yul\":197:198   */\n      0x00\n        /* \"#utility.yul\":194:195   */\n      0x00\n        /* \"#utility.yul\":187:199   */\n      revert\n        /* \"#utility.yul\":334:411   */\n    tag_77:\n        /* \"#utility.yul\":371:378   */\n      0x00\n        /* \"#utility.yul\":400:405   */\n      dup2\n        /* \"#utility.yul\":389:405   */\n      swap1\n      pop\n        /* \"#utility.yul\":334:411   */\n      swap2\n      swap1\n      pop\n      jump\t// out\n        /* \"#utility.yul\":417:539   */\n    tag_78:\n        /* \"#utility.yul\":490:514   */\n      tag_96\n        /* \"#utility.yul\":508:513   */\n      dup2\n        /* \"#utility.yul\":490:514   */\n      tag_77\n      jump\t// in\n    tag_96:\n        /* \"#utility.yul\":483:488   */\n      dup2\n        /* \"#utility.yul\":480:515   */\n      eq\n        /* \"#utility.yul\":470:533   */\n      tag_97\n      jumpi\n        /* \"#utility.yul\":529:530   */\n      0x00\n        /* \"#utility.yul\":526:527   */\n      0x00\n        /* \"#utility.yul\":519:531   */\n      revert\n        /* \"#utility.yul\":470:533   */\n    tag_97:\n        /* \"#utility.yul\":417:539   */\n      pop\n      jump\t// out\n        /* \"#utility.yul\":545:684   */\n    tag_79:\n        /* \"#utility.yul\":591:596   */\n      0x00\n        /* \"#utility.yul\":629:635   */\n      dup2\n        /* \"#utility.yul\":616:636   */\n      calldataload\n        /* \"#utility.yul\":607:636   */\n      swap1\n      pop\n        /* \"#utility.yul\":645:678   */\n      tag_99\n        /* \"#utility.yul\":672:677   */\n      dup2\n        /* \"#utility.yul\":645:678   */\n      tag_78\n      jump\t// in\n    tag_99:\n        /* \"#utility.yul\":545:684   */\n      swap3\n      swap2\n      pop\n      pop\n      jump\t// out\n        /* \"#utility.yul\":690:1019   */\n    tag_11:\n        /* \"#utility.yul\":749:755   */\n      0x00\n        /* \"#utility.yul\":798:800   */\n      0x20\n        /* \"#utility.yul\":786:795   */\n      dup3\n        /* \"#utility.yul\":777:784   */\n      dup5\n        /* \"#utility.yul\":773:796   */\n      sub\n        /* \"#utility.yul\":769:801   */\n      slt\n        /* \"#utility.yul\":766:885   */\n      iszero\n      tag_101\n      jumpi\n        /* \"#utility.yul\":804:883   */\n      tag_102\n      tag_75\n      jump\t// in\n    tag_102:\n        /* \"#utility.yul\":766:885   */\n    tag_101:\n        /* \"#utility.yul\":924:925   */\n      0x00\n        /* \"#utility.yul\":949:1002   */\n      tag_103\n        /* \"#utility.yul\":994:1001   */\n      dup5\n        /* \"#utility.yul\":985:991   */\n      dup3\n        /* \"#utility.yul\":974:983   */\n      dup6\n        /* \"#utility.yul\":970:992   */\n      add\n        /* \"#utility.yul\":949:1002   */\n      tag_79\n      jump\t// in\n    tag_103:\n        /* \"#utility.yul\":939:1002   */\n      swap2\n      pop\n        /* \"#utility.yul\":895:1012   */\n      pop\n        /* \"#utility.yul\":690:1019   */\n      swap3\n      swap2\n      pop\n      pop\n      jump\t// out\n        /* \"#utility.yul\":1025:1124   */\n    tag_80:\n        /* \"#utility.yul\":1077:1083   */\n      0x00\n        /* \"#utility.yul\":1111:1116   */\n      dup2\n        /* \"#utility.yul\":1105:1117   */\n      mload\n        /* \"#utility.yul\":1095:1117   */\n      swap1\n      pop\n        /* \"#utility.yul\":1025:1124   */\n      swap2\n      swap1\n      pop\n      jump\t// out\n        /* \"#utility.yul\":1130:1299   */\n    tag_81:\n        /* \"#utility.yul\":1214:1225   */\n      0x00\n        /* \"#utility.yul\":1248:1254   */\n      dup3\n        /* \"#utility.yul\":1243:1246   */\n      dup3\n        /* \"#utility.yul\":1236:1255   */\n      mstore\n        /* \"#utility.yul\":1288:1292   */\n      0x20\n        /* \"#utility.yul\":1283:1286   */\n      dup3\n        /* \"#utility.yul\":1279:1293   */\n      add\n        /* \"#utility.yul\":1264:1293   */\n      swap1\n      pop\n        /* \"#utility.yul\":1130:1299   */\n      swap3\n      swap2\n      pop\n      pop\n      jump\t// out\n        /* \"#utility.yul\":1305:1444   */\n    tag_82:\n        /* \"#utility.yul\":1394:1400   */\n      dup3\n        /* \"#utility.yul\":1389:1392   */\n      dup2\n        /* \"#utility.yul\":1384:1387   */\n      dup4\n        /* \"#utility.yul\":1378:1401   */\n      mcopy\n        /* \"#utility.yul\":1435:1436   */\n      0x00\n        /* \"#utility.yul\":1426:1432   */\n      dup4\n        /* \"#utility.yul\":1421:1424   */\n      dup4\n        /* \"#utility.yul\":1417:1433   */\n      add\n        /* \"#utility.yul\":1410:1437   */\n      mstore\n        /* \"#utility.yul\":1305:1444   */\n      pop\n      pop\n      pop\n      jump\t// out\n        /* \"#utility.yul\":1450:1552   */\n    tag_83:\n        /* \"#utility.yul\":1491:1497   */\n      0x00\n        /* \"#utility.yul\":1542:1544   */\n      0x1f\n        /* \"#utility.yul\":1538:1545   */\n      not\n        /* \"#utility.yul\":1533:1535   */\n      0x1f\n        /* \"#utility.yul\":1526:1531   */\n      dup4\n        /* \"#utility.yul\":1522:1536   */\n      add\n        /* \"#utility.yul\":1518:1546   */\n      and\n        /* \"#utility.yul\":1508:1546   */\n      swap1\n      pop\n        /* \"#utility.yul\":1450:1552   */\n      swap2\n      swap1\n      pop\n      jump\t// out\n        /* \"#utility.yul\":1558:1935   */\n    tag_84:\n        /* \"#utility.yul\":1646:1649   */\n      0x00\n        /* \"#utility.yul\":1674:1713   */\n      tag_109\n        /* \"#utility.yul\":1707:1712   */\n      dup3\n        /* \"#utility.yul\":1674:1713   */\n      tag_80\n      jump\t// in\n    tag_109:\n        /* \"#utility.yul\":1729:1800   */\n      tag_110\n        /* \"#utility.yul\":1793:1799   */\n      dup2\n        /* \"#utility.yul\":1788:1791   */\n      dup6\n        /* \"#utility.yul\":1729:1800   */\n      tag_81\n      jump\t// in\n    tag_110:\n        /* \"#utility.yul\":1722:1800   */\n      swap4\n      pop\n        /* \"#utility.yul\":1809:1874   */\n      tag_111\n        /* \"#utility.yul\":1867:1873   */\n      dup2\n        /* \"#utility.yul\":1862:1865   */\n      dup6\n        /* \"#utility.yul\":1855:1859   */\n      0x20\n        /* \"#utility.yul\":1848:1853   */\n      dup7\n        /* \"#utility.yul\":1844:1860   */\n      add\n        /* \"#utility.yul\":1809:1874   */\n      tag_82\n      jump\t// in\n    tag_111:\n        /* \"#utility.yul\":1899:1928   */\n      tag_112\n        /* \"#utility.yul\":1921:1927   */\n      dup2\n        /* \"#utility.yul\":1899:1928   */\n      tag_83\n      jump\t// in\n    tag_112:\n        /* \"#utility.yul\":1894:1897   */\n      dup5\n        /* \"#utility.yul\":1890:1929   */\n      add\n        /* \"#utility.yul\":1883:1929   */\n      swap2\n      pop\n        /* \"#utility.yul\":1650:1935   */\n      pop\n        /* \"#utility.yul\":1558:1935   */\n      swap3\n      swap2\n      pop\n      pop\n      jump\t// out\n        /* \"#utility.yul\":1941:2254   */\n    tag_14:\n        /* \"#utility.yul\":2054:2058   */\n      0x00\n        /* \"#utility.yul\":2092:2094   */\n      0x20\n        /* \"#utility.yul\":2081:2090   */\n      dup3\n        /* \"#utility.yul\":2077:2095   */\n      add\n        /* \"#utility.yul\":2069:2095   */\n      swap1\n      pop\n        /* \"#utility.yul\":2141:2150   */\n      dup2\n        /* \"#utility.yul\":2135:2139   */\n      dup2\n        /* \"#utility.yul\":2131:2151   */\n      sub\n        /* \"#utility.yul\":2127:2128   */\n      0x00\n        /* \"#utility.yul\":2116:2125   */\n      dup4\n        /* \"#utility.yul\":2112:2129   */\n      add\n        /* \"#utility.yul\":2105:2152   */\n      mstore\n        /* \"#utility.yul\":2169:2247   */\n      tag_114\n        /* \"#utility.yul\":2242:2246   */\n      dup2\n        /* \"#utility.yul\":2233:2239   */\n      dup5\n        /* \"#utility.yul\":2169:2247   */\n      tag_84\n      jump\t// in\n    tag_114:\n        /* \"#utility.yul\":2161:2247   */\n      swap1\n      pop\n        /* \"#utility.yul\":1941:2254   */\n      swap3\n      swap2\n      pop\n      pop\n      jump\t// out\n        /* \"#utility.yul\":2260:2378   */\n    tag_85:\n        /* \"#utility.yul\":2347:2371   */\n      tag_116\n        /* \"#utility.yul\":2365:2370   */\n      dup2\n        /* \"#utility.yul\":2347:2371   */\n      tag_77\n      jump\t// in\n    tag_116:\n        /* \"#utility.yul\":2342:2345   */\n      dup3\n        /* \"#utility.yul\":2335:2372   */\n      mstore\n        /* \"#utility.yul\":2260:2378   */\n      pop\n      pop\n      jump\t// out\n        /* \"#utility.yul\":2384:2606   */\n    tag_19:\n        /* \"#utility.yul\":2477:2481   */\n      0x00\n        /* \"#utility.yul\":2515:2517   */\n      0x20\n        /* \"#utility.yul\":2504:2513   */\n      dup3\n        /* \"#utility.yul\":2500:2518   */\n      add\n        /* \"#utility.yul\":2492:2518   */\n      swap1\n      pop\n        /* \"#utility.yul\":2528:2599   */\n      tag_118\n        /* \"#utility.yul\":2596:2597   */\n      0x00\n        /* \"#utility.yul\":2585:2594   */\n      dup4\n        /* \"#utility.yul\":2581:2598   */\n      add\n        /* \"#utility.yul\":2572:2578   */\n      dup5\n        /* \"#utility.yul\":2528:2599   */\n      tag_85\n      jump\t// in\n    tag_118:\n        /* \"#utility.yul\":2384:2606   */\n      swap3\n      swap2\n      pop\n      pop\n      jump\t// out\n        /* \"#utility.yul\":2612:2688   */\n    tag_86:\n        /* \"#utility.yul\":2648:2655   */\n      0x00\n        /* \"#utility.yul\":2677:2682   */\n      dup2\n        /* \"#utility.yul\":2666:2682   */\n      swap1\n      pop\n        /* \"#utility.yul\":2612:2688   */\n      swap2\n      swap1\n      pop\n      jump\t// out\n        /* \"#utility.yul\":2694:2814   */\n    tag_87:\n        /* \"#utility.yul\":2766:2789   */\n      tag_121\n        /* \"#utility.yul\":2783:2788   */\n      dup2\n        /* \"#utility.yul\":2766:2789   */\n      tag_86\n      jump\t// in\n    tag_121:\n        /* \"#utility.yul\":2759:2764   */\n      dup2\n        /* \"#utility.yul\":2756:2790   */\n      eq\n        /* \"#utility.yul\":2746:2808   */\n      tag_122\n      jumpi\n        /* \"#utility.yul\":2804:2805   */\n      0x00\n        /* \"#utility.yul\":2801:2802   */\n      0x00\n        /* \"#utility.yul\":2794:2806   */\n      revert\n        /* \"#utility.yul\":2746:2808   */\n    tag_122:\n        /* \"#utility.yul\":2694:2814   */\n      pop\n      jump\t// out\n        /* \"#utility.yul\":2820:2957   */\n    tag_88:\n        /* \"#utility.yul\":2865:2870   */\n      0x00\n        /* \"#utility.yul\":2903:2909   */\n      dup2\n        /* \"#utility.yul\":2890:2910   */\n      calldataload\n        /* \"#utility.yul\":2881:2910   */\n      swap1\n      pop\n        /* \"#utility.yul\":2919:2951   */\n      tag_124\n        /* \"#utility.yul\":2945:2950   */\n      dup2\n        /* \"#utility.yul\":2919:2951   */\n      tag_87\n      jump\t// in\n    tag_124:\n        /* \"#utility.yul\":2820:2957   */\n      swap3\n      swap2\n      pop\n      pop\n      jump\t// out\n        /* \"#utility.yul\":2963:3290   */\n    tag_26:\n        /* \"#utility.yul\":3021:3027   */\n      0x00\n        /* \"#utility.yul\":3070:3072   */\n      0x20\n        /* \"#utility.yul\":3058:3067   */\n      dup3\n        /* \"#utility.yul\":3049:3056   */\n      dup5\n        /* \"#utility.yul\":3045:3068   */\n      sub\n        /* \"#utility.yul\":3041:3073   */\n      slt\n        /* \"#utility.yul\":3038:3157   */\n      iszero\n      tag_126\n      jumpi\n        /* \"#utility.yul\":3076:3155   */\n      tag_127\n      tag_75\n      jump\t// in\n    tag_127:\n        /* \"#utility.yul\":3038:3157   */\n    tag_126:\n        /* \"#utility.yul\":3196:3197   */\n      0x00\n        /* \"#utility.yul\":3221:3273   */\n      tag_128\n        /* \"#utility.yul\":3265:3272   */\n      dup5\n        /* \"#utility.yul\":3256:3262   */\n      dup3\n        /* \"#utility.yul\":3245:3254   */\n      dup6\n        /* \"#utility.yul\":3241:3263   */\n      add\n        /* \"#utility.yul\":3221:3273   */\n      tag_88\n      jump\t// in\n    tag_128:\n        /* \"#utility.yul\":3211:3273   */\n      swap2\n      pop\n        /* \"#utility.yul\":3167:3283   */\n      pop\n        /* \"#utility.yul\":2963:3290   */\n      swap3\n      swap2\n      pop\n      pop\n      jump\t// out\n        /* \"#utility.yul\":3296:3476   */\n    tag_89:\n        /* \"#utility.yul\":3344:3421   */\n      0x4e487b7100000000000000000000000000000000000000000000000000000000\n        /* \"#utility.yul\":3341:3342   */\n      0x00\n        /* \"#utility.yul\":3334:3422   */\n      mstore\n        /* \"#utility.yul\":3441:3445   */\n      0x11\n        /* \"#utility.yul\":3438:3439   */\n      0x04\n        /* \"#utility.yul\":3431:3446   */\n      mstore\n        /* \"#utility.yul\":3465:3469   */\n      0x24\n        /* \"#utility.yul\":3462:3463   */\n      0x00\n        /* \"#utility.yul\":3455:3470   */\n      revert\n        /* \"#utility.yul\":3482:3673   */\n    tag_51:\n        /* \"#utility.yul\":3522:3525   */\n      0x00\n        /* \"#utility.yul\":3541:3561   */\n      tag_131\n        /* \"#utility.yul\":3559:3560   */\n      dup3\n        /* \"#utility.yul\":3541:3561   */\n      tag_77\n      jump\t// in\n    tag_131:\n        /* \"#utility.yul\":3536:3561   */\n      swap2\n      pop\n        /* \"#utility.yul\":3575:3595   */\n      tag_132\n        /* \"#utility.yul\":3593:3594   */\n      dup4\n        /* \"#utility.yul\":3575:3595   */\n      tag_77\n      jump\t// in\n    tag_132:\n        /* \"#utility.yul\":3570:3595   */\n      swap3\n      pop\n        /* \"#utility.yul\":3618:3619   */\n      dup3\n        /* \"#utility.yul\":3615:3616   */\n      dup3\n        /* \"#utility.yul\":3611:3620   */\n      add\n        /* \"#utility.yul\":3604:3620   */\n      swap1\n      pop\n        /* \"#utility.yul\":3639:3642   */\n      dup1\n        /* \"#utility.yul\":3636:3637   */\n      dup3\n        /* \"#utility.yul\":3633:3643   */\n      gt\n        /* \"#utility.yul\":3630:3666   */\n      iszero\n      tag_133\n      jumpi\n        /* \"#utility.yul\":3646:3664   */\n      tag_134\n      tag_89\n      jump\t// in\n    tag_134:\n        /* \"#utility.yul\":3630:3666   */\n    tag_133:\n        /* \"#utility.yul\":3482:3673   */\n      swap3\n      swap2\n      pop\n      pop\n      jump\t// out\n        /* \"#utility.yul\":3679:3912   */\n    tag_59:\n        /* \"#utility.yul\":3718:3721   */\n      0x00\n        /* \"#utility.yul\":3741:3765   */\n      tag_136\n        /* \"#utility.yul\":3759:3764   */\n      dup3\n        /* \"#utility.yul\":3741:3765   */\n      tag_77\n      jump\t// in\n    tag_136:\n        /* \"#utility.yul\":3732:3765   */\n      swap2\n      pop\n        /* \"#utility.yul\":3787:3853   */\n      0xffffffffffffffffffffffffffffffffffffffffffffffffffffffffffffffff\n        /* \"#utility.yul\":3780:3785   */\n      dup3\n        /* \"#utility.yul\":3777:3854   */\n      sub\n        /* \"#utility.yul\":3774:3877   */\n      tag_137\n      jumpi\n        /* \"#utility.yul\":3857:3875   */\n      tag_138\n      tag_89\n      jump\t// in\n    tag_138:\n        /* \"#utility.yul\":3774:3877   */\n    tag_137:\n        /* \"#utility.yul\":3904:3905   */\n      0x01\n        /* \"#utility.yul\":3897:3902   */\n      dup3\n        /* \"#utility.yul\":3893:3906   */\n      add\n        /* \"#utility.yul\":3886:3906   */\n      swap1\n      pop\n        /* \"#utility.yul\":3679:3912   */\n      swap2\n      swap1\n      pop\n      jump\t// out\n\n    auxdata: 0xa2646970667358221220d885ffe54c2c9d8e86e8ac28ae074be12c4622412d79f844322346e010e9d96064736f6c634300081e0033\n}\n",
				"bytecode": {
					"linkReferences": {},
					"object": "6080604052348015600e575f5ffd5b506107ab8061001c5f395ff3fe608060405234801561000f575f5ffd5b5060043610610060575f3560e01c806312b8396b1461006457806318794df514610094578063188b85b4146100c45780638e4198ba146100f4578063a655916d14610124578063cc04364c14610154575b5f5ffd5b61007e6004803603810190610079919061058d565b610184565b60405161008b9190610628565b60405180910390f35b6100ae60048036038101906100a9919061058d565b6102b2565b6040516100bb9190610657565b60405180910390f35b6100de60048036038101906100d9919061058d565b6102f0565b6040516100eb9190610657565b60405180910390f35b61010e600480360381019061010991906106a3565b61032d565b60405161011b9190610628565b60405180910390f35b61013e6004803603810190610139919061058d565b6103f6565b60405161014b9190610628565b60405180910390f35b61016e6004803603810190610169919061058d565b6104d0565b60405161017b9190610628565b60405180910390f35b606060468210156101cc576040518060400160405280600181526020017f460000000000000000000000000000000000000000000000000000000000000081525090506102ad565b604682101580156101de5750604f8211155b15610220576040518060400160405280600181526020017f430000000000000000000000000000000000000000000000000000000000000081525090506102ad565b60508210158015610232575060598211155b15610274576040518060400160405280600181526020017f420000000000000000000000000000000000000000000000000000000000000081525090506102ad565b6040518060400160405280600181526020017f410000000000000000000000000000000000000000000000000000000000000081525090505b919050565b5f5f5f90505f600290505b8381116102e65780826102d091906106fb565b91506002816102df91906106fb565b90506102bd565b5080915050919050565b5f5f5f90505f600190505b83811161032357808261030e91906106fb565b9150808061031b9061072e565b9150506102fb565b5080915050919050565b60605f8213610373576040518060400160405280600881526020017f467265657a696e6700000000000000000000000000000000000000000000000081525090506103f1565b606482126103b8576040518060400160405280600781526020017f426f696c696e670000000000000000000000000000000000000000000000000081525090506103f1565b6040518060400160405280600681526020017f4e6f726d616c000000000000000000000000000000000000000000000000000081525090505b919050565b6060600d82101561043e576040518060400160405280600b81526020017f4e6f7420616c6c6f77656400000000000000000000000000000000000000000081525090506104cb565b600d8210158015610450575060118211155b15610492576040518060400160405280601181526020017f477561726469616e20726571756972656400000000000000000000000000000081525090506104cb565b6040518060400160405280600781526020017f416c6c6f7765640000000000000000000000000000000000000000000000000081525090505b919050565b60606064821015610518576040518060400160405280601081526020017f4e6f74206f7665727370656564696e67000000000000000000000000000000008152509050610551565b6040518060400160405280600c81526020017f4f7665727370656564696e67000000000000000000000000000000000000000081525090505b919050565b5f5ffd5b5f819050919050565b61056c8161055a565b8114610576575f5ffd5b50565b5f8135905061058781610563565b92915050565b5f602082840312156105a2576105a1610556565b5b5f6105af84828501610579565b91505092915050565b5f81519050919050565b5f82825260208201905092915050565b8281835e5f83830152505050565b5f601f19601f8301169050919050565b5f6105fa826105b8565b61060481856105c2565b93506106148185602086016105d2565b61061d816105e0565b840191505092915050565b5f6020820190508181035f83015261064081846105f0565b905092915050565b6106518161055a565b82525050565b5f60208201905061066a5f830184610648565b92915050565b5f819050919050565b61068281610670565b811461068c575f5ffd5b50565b5f8135905061069d81610679565b92915050565b5f602082840312156106b8576106b7610556565b5b5f6106c58482850161068f565b91505092915050565b7f4e487b71000000000000000000000000000000000000000000000000000000005f52601160045260245ffd5b5f6107058261055a565b91506107108361055a565b9250828201905080821115610728576107276106ce565b5b92915050565b5f6107388261055a565b91507fffffffffffffffffffffffffffffffffffffffffffffffffffffffffffffffff820361076a576107696106ce565b5b60018201905091905056fea2646970667358221220d885ffe54c2c9d8e86e8ac28ae074be12c4622412d79f844322346e010e9d96064736f6c634300081e0033",
					"opcodes": "PUSH1 0x80 PUSH1 0x40 MSTORE CALLVALUE DUP1 ISZERO PUSH1 0xE JUMPI PUSH0 PUSH0 REVERT JUMPDEST POP PUSH2 0x7AB DUP1 PUSH2 0x1C PUSH0 CODECOPY PUSH0 RETURN INVALID PUSH1 0x80 PUSH1 0x40 MSTORE CALLVALUE DUP1 ISZERO PUSH2 0xF JUMPI PUSH0 PUSH0 REVERT JUMPDEST POP PUSH1 0x4 CALLDATASIZE LT PUSH2 0x60 JUMPI PUSH0 CALLDATALOAD PUSH1 0xE0 SHR DUP1 PUSH4 0x12B8396B EQ PUSH2 0x64 JUMPI DUP1 PUSH4 0x18794DF5 EQ PUSH2 0x94 JUMPI DUP1 PUSH4 0x188B85B4 EQ PUSH2 0xC4 JUMPI DUP1 PUSH4 0x8E4198BA EQ PUSH2 0xF4 JUMPI DUP1 PUSH4 0xA655916D EQ PUSH2 0x124 JUMPI DUP1 PUSH4 0xCC04364C EQ PUSH2 0x154 JUMPI JUMPDEST PUSH0 PUSH0 REVERT JUMPDEST PUSH2 0x7E PUSH1 0x4 DUP1 CALLDATASIZE SUB DUP2 ADD SWAP1 PUSH2 0x79 SWAP2 SWAP1 PUSH2 0x58D JUMP JUMPDEST PUSH2 0x184 JUMP JUMPDEST PUSH1 0x40 MLOAD PUSH2 0x8B SWAP2 SWAP1 PUSH2 0x628 JUMP JUMPDEST PUSH1 0x40 MLOAD DUP1 SWAP2 SUB SWAP1 RETURN JUMPDEST PUSH2 0xAE PUSH1 0x4 DUP1 CALLDATASIZE SUB DUP2 ADD SWAP1 PUSH2 0xA9 SWAP2 SWAP1 PUSH2 0x58D JUMP JUMPDEST PUSH2 0x2B2 JUMP JUMPDEST PUSH1 0x40 MLOAD PUSH2 0xBB SWAP2 SWAP1 PUSH2 0x657 JUMP JUMPDEST PUSH1 0x40 MLOAD DUP1 SWAP2 SUB SWAP1 RETURN JUMPDEST PUSH2 0xDE PUSH1 0x4 DUP1 CALLDATASIZE SUB DUP2 ADD SWAP1 PUSH2 0xD9 SWAP2 SWAP1 PUSH2 0x58D JUMP JUMPDEST PUSH2 0x2F0 JUMP JUMPDEST PUSH1 0x40 MLOAD PUSH2 0xEB SWAP2 SWAP1 PUSH2 0x657 JUMP JUMPDEST PUSH1 0x40 MLOAD DUP1 SWAP2 SUB SWAP1 RETURN JUMPDEST PUSH2 0x10E PUSH1 0x4 DUP1 CALLDATASIZE SUB DUP2 ADD SWAP1 PUSH2 0x109 SWAP2 SWAP1 PUSH2 0x6A3 JUMP JUMPDEST PUSH2 0x32D JUMP JUMPDEST PUSH1 0x40 MLOAD PUSH2 0x11B SWAP2 SWAP1 PUSH2 0x628 JUMP JUMPDEST PUSH1 0x40 MLOAD DUP1 SWAP2 SUB SWAP1 RETURN JUMPDEST PUSH2 0x13E PUSH1 0x4 DUP1 CALLDATASIZE SUB DUP2 ADD SWAP1 PUSH2 0x139 SWAP2 SWAP1 PUSH2 0x58D JUMP JUMPDEST PUSH2 0x3F6 JUMP JUMPDEST PUSH1 0x40 MLOAD PUSH2 0x14B SWAP2 SWAP1 PUSH2 0x628 JUMP JUMPDEST PUSH1 0x40 MLOAD DUP1 SWAP2 SUB SWAP1 RETURN JUMPDEST PUSH2 0x16E PUSH1 0x4 DUP1 CALLDATASIZE SUB DUP2 ADD SWAP1 PUSH2 0x169 SWAP2 SWAP1 PUSH2 0x58D JUMP JUMPDEST PUSH2 0x4D0 JUMP JUMPDEST PUSH1 0x40 MLOAD PUSH2 0x17B SWAP2 SWAP1 PUSH2 0x628 JUMP JUMPDEST PUSH1 0x40 MLOAD DUP1 SWAP2 SUB SWAP1 RETURN JUMPDEST PUSH1 0x60 PUSH1 0x46 DUP3 LT ISZERO PUSH2 0x1CC JUMPI PUSH1 0x40 MLOAD DUP1 PUSH1 0x40 ADD PUSH1 0x40 MSTORE DUP1 PUSH1 0x1 DUP2 MSTORE PUSH1 0x20 ADD PUSH32 0x4600000000000000000000000000000000000000000000000000000000000000 DUP2 MSTORE POP SWAP1 POP PUSH2 0x2AD JUMP JUMPDEST PUSH1 0x46 DUP3 LT ISZERO DUP1 ISZERO PUSH2 0x1DE JUMPI POP PUSH1 0x4F DUP3 GT ISZERO JUMPDEST ISZERO PUSH2 0x220 JUMPI PUSH1 0x40 MLOAD DUP1 PUSH1 0x40 ADD PUSH1 0x40 MSTORE DUP1 PUSH1 0x1 DUP2 MSTORE PUSH1 0x20 ADD PUSH32 0x4300000000000000000000000000000000000000000000000000000000000000 DUP2 MSTORE POP SWAP1 POP PUSH2 0x2AD JUMP JUMPDEST PUSH1 0x50 DUP3 LT ISZERO DUP1 ISZERO PUSH2 0x232 JUMPI POP PUSH1 0x59 DUP3 GT ISZERO JUMPDEST ISZERO PUSH2 0x274 JUMPI PUSH1 0x40 MLOAD DUP1 PUSH1 0x40 ADD PUSH1 0x40 MSTORE DUP1 PUSH1 0x1 DUP2 MSTORE PUSH1 0x20 ADD PUSH32 0x4200000000000000000000000000000000000000000000000000000000000000 DUP2 MSTORE POP SWAP1 POP PUSH2 0x2AD JUMP JUMPDEST PUSH1 0x40 MLOAD DUP1 PUSH1 0x40 ADD PUSH1 0x40 MSTORE DUP1 PUSH1 0x1 DUP2 MSTORE PUSH1 0x20 ADD PUSH32 0x4100000000000000000000000000000000000000000000000000000000000000 DUP2 MSTORE POP SWAP1 POP JUMPDEST SWAP2 SWAP1 POP JUMP JUMPDEST PUSH0 PUSH0 PUSH0 SWAP1 POP PUSH0 PUSH1 0x2 SWAP1 POP JUMPDEST DUP4 DUP2 GT PUSH2 0x2E6 JUMPI DUP1 DUP3 PUSH2 0x2D0 SWAP2 SWAP1 PUSH2 0x6FB JUMP JUMPDEST SWAP2 POP PUSH1 0x2 DUP2 PUSH2 0x2DF SWAP2 SWAP1 PUSH2 0x6FB JUMP JUMPDEST SWAP1 POP PUSH2 0x2BD JUMP JUMPDEST POP DUP1 SWAP2 POP POP SWAP2 SWAP1 POP JUMP JUMPDEST PUSH0 PUSH0 PUSH0 SWAP1 POP PUSH0 PUSH1 0x1 SWAP1 POP JUMPDEST DUP4 DUP2 GT PUSH2 0x323 JUMPI DUP1 DUP3 PUSH2 0x30E SWAP2 SWAP1 PUSH2 0x6FB JUMP JUMPDEST SWAP2 POP DUP1 DUP1 PUSH2 0x31B SWAP1 PUSH2 0x72E JUMP JUMPDEST SWAP2 POP POP PUSH2 0x2FB JUMP JUMPDEST POP DUP1 SWAP2 POP POP SWAP2 SWAP1 POP JUMP JUMPDEST PUSH1 0x60 PUSH0 DUP3 SGT PUSH2 0x373 JUMPI PUSH1 0x40 MLOAD DUP1 PUSH1 0x40 ADD PUSH1 0x40 MSTORE DUP1 PUSH1 0x8 DUP2 MSTORE PUSH1 0x20 ADD PUSH32 0x467265657A696E67000000000000000000000000000000000000000000000000 DUP2 MSTORE POP SWAP1 POP PUSH2 0x3F1 JUMP JUMPDEST PUSH1 0x64 DUP3 SLT PUSH2 0x3B8 JUMPI PUSH1 0x40 MLOAD DUP1 PUSH1 0x40 ADD PUSH1 0x40 MSTORE DUP1 PUSH1 0x7 DUP2 MSTORE PUSH1 0x20 ADD PUSH32 0x426F696C696E6700000000000000000000000000000000000000000000000000 DUP2 MSTORE POP SWAP1 POP PUSH2 0x3F1 JUMP JUMPDEST PUSH1 0x40 MLOAD DUP1 PUSH1 0x40 ADD PUSH1 0x40 MSTORE DUP1 PUSH1 0x6 DUP2 MSTORE PUSH1 0x20 ADD PUSH32 0x4E6F726D616C0000000000000000000000000000000000000000000000000000 DUP2 MSTORE POP SWAP1 POP JUMPDEST SWAP2 SWAP1 POP JUMP JUMPDEST PUSH1 0x60 PUSH1 0xD DUP3 LT ISZERO PUSH2 0x43E JUMPI PUSH1 0x40 MLOAD DUP1 PUSH1 0x40 ADD PUSH1 0x40 MSTORE DUP1 PUSH1 0xB DUP2 MSTORE PUSH1 0x20 ADD PUSH32 0x4E6F7420616C6C6F776564000000000000000000000000000000000000000000 DUP2 MSTORE POP SWAP1 POP PUSH2 0x4CB JUMP JUMPDEST PUSH1 0xD DUP3 LT ISZERO DUP1 ISZERO PUSH2 0x450 JUMPI POP PUSH1 0x11 DUP3 GT ISZERO JUMPDEST ISZERO PUSH2 0x492 JUMPI PUSH1 0x40 MLOAD DUP1 PUSH1 0x40 ADD PUSH1 0x40 MSTORE DUP1 PUSH1 0x11 DUP2 MSTORE PUSH1 0x20 ADD PUSH32 0x477561726469616E207265717569726564000000000000000000000000000000 DUP2 MSTORE POP SWAP1 POP PUSH2 0x4CB JUMP JUMPDEST PUSH1 0x40 MLOAD DUP1 PUSH1 0x40 ADD PUSH1 0x40 MSTORE DUP1 PUSH1 0x7 DUP2 MSTORE PUSH1 0x20 ADD PUSH32 0x416C6C6F77656400000000000000000000000000000000000000000000000000 DUP2 MSTORE POP SWAP1 POP JUMPDEST SWAP2 SWAP1 POP JUMP JUMPDEST PUSH1 0x60 PUSH1 0x64 DUP3 LT ISZERO PUSH2 0x518 JUMPI PUSH1 0x40 MLOAD DUP1 PUSH1 0x40 ADD PUSH1 0x40 MSTORE DUP1 PUSH1 0x10 DUP2 MSTORE PUSH1 0x20 ADD PUSH32 0x4E6F74206F7665727370656564696E6700000000000000000000000000000000 DUP2 MSTORE POP SWAP1 POP PUSH2 0x551 JUMP JUMPDEST PUSH1 0x40 MLOAD DUP1 PUSH1 0x40 ADD PUSH1 0x40 MSTORE DUP1 PUSH1 0xC DUP2 MSTORE PUSH1 0x20 ADD PUSH32 0x4F7665727370656564696E670000000000000000000000000000000000000000 DUP2 MSTORE POP SWAP1 POP JUMPDEST SWAP2 SWAP1 POP JUMP JUMPDEST PUSH0 PUSH0 REVERT JUMPDEST PUSH0 DUP2 SWAP1 POP SWAP2 SWAP1 POP JUMP JUMPDEST PUSH2 0x56C DUP2 PUSH2 0x55A JUMP JUMPDEST DUP2 EQ PUSH2 0x576 JUMPI PUSH0 PUSH0 REVERT JUMPDEST POP JUMP JUMPDEST PUSH0 DUP2 CALLDATALOAD SWAP1 POP PUSH2 0x587 DUP2 PUSH2 0x563 JUMP JUMPDEST SWAP3 SWAP2 POP POP JUMP JUMPDEST PUSH0 PUSH1 0x20 DUP3 DUP5 SUB SLT ISZERO PUSH2 0x5A2 JUMPI PUSH2 0x5A1 PUSH2 0x556 JUMP JUMPDEST JUMPDEST PUSH0 PUSH2 0x5AF DUP5 DUP3 DUP6 ADD PUSH2 0x579 JUMP JUMPDEST SWAP2 POP POP SWAP3 SWAP2 POP POP JUMP JUMPDEST PUSH0 DUP2 MLOAD SWAP1 POP SWAP2 SWAP1 POP JUMP JUMPDEST PUSH0 DUP3 DUP3 MSTORE PUSH1 0x20 DUP3 ADD SWAP1 POP SWAP3 SWAP2 POP POP JUMP JUMPDEST DUP3 DUP2 DUP4 MCOPY PUSH0 DUP4 DUP4 ADD MSTORE POP POP POP JUMP JUMPDEST PUSH0 PUSH1 0x1F NOT PUSH1 0x1F DUP4 ADD AND SWAP1 POP SWAP2 SWAP1 POP JUMP JUMPDEST PUSH0 PUSH2 0x5FA DUP3 PUSH2 0x5B8 JUMP JUMPDEST PUSH2 0x604 DUP2 DUP6 PUSH2 0x5C2 JUMP JUMPDEST SWAP4 POP PUSH2 0x614 DUP2 DUP6 PUSH1 0x20 DUP7 ADD PUSH2 0x5D2 JUMP JUMPDEST PUSH2 0x61D DUP2 PUSH2 0x5E0 JUMP JUMPDEST DUP5 ADD SWAP2 POP POP SWAP3 SWAP2 POP POP JUMP JUMPDEST PUSH0 PUSH1 0x20 DUP3 ADD SWAP1 POP DUP2 DUP2 SUB PUSH0 DUP4 ADD MSTORE PUSH2 0x640 DUP2 DUP5 PUSH2 0x5F0 JUMP JUMPDEST SWAP1 POP SWAP3 SWAP2 POP POP JUMP JUMPDEST PUSH2 0x651 DUP2 PUSH2 0x55A JUMP JUMPDEST DUP3 MSTORE POP POP JUMP JUMPDEST PUSH0 PUSH1 0x20 DUP3 ADD SWAP1 POP PUSH2 0x66A PUSH0 DUP4 ADD DUP5 PUSH2 0x648 JUMP JUMPDEST SWAP3 SWAP2 POP POP JUMP JUMPDEST PUSH0 DUP2 SWAP1 POP SWAP2 SWAP1 POP JUMP JUMPDEST PUSH2 0x682 DUP2 PUSH2 0x670 JUMP JUMPDEST DUP2 EQ PUSH2 0x68C JUMPI PUSH0 PUSH0 REVERT JUMPDEST POP JUMP JUMPDEST PUSH0 DUP2 CALLDATALOAD SWAP1 POP PUSH2 0x69D DUP2 PUSH2 0x679 JUMP JUMPDEST SWAP3 SWAP2 POP POP JUMP JUMPDEST PUSH0 PUSH1 0x20 DUP3 DUP5 SUB SLT ISZERO PUSH2 0x6B8 JUMPI PUSH2 0x6B7 PUSH2 0x556 JUMP JUMPDEST JUMPDEST PUSH0 PUSH2 0x6C5 DUP5 DUP3 DUP6 ADD PUSH2 0x68F JUMP JUMPDEST SWAP2 POP POP SWAP3 SWAP2 POP POP JUMP JUMPDEST PUSH32 0x4E487B7100000000000000000000000000000000000000000000000000000000 PUSH0 MSTORE PUSH1 0x11 PUSH1 0x4 MSTORE PUSH1 0x24 PUSH0 REVERT JUMPDEST PUSH0 PUSH2 0x705 DUP3 PUSH2 0x55A JUMP JUMPDEST SWAP2 POP PUSH2 0x710 DUP4 PUSH2 0x55A JUMP JUMPDEST SWAP3 POP DUP3 DUP3 ADD SWAP1 POP DUP1 DUP3 GT ISZERO PUSH2 0x728 JUMPI PUSH2 0x727 PUSH2 0x6CE JUMP JUMPDEST JUMPDEST SWAP3 SWAP2 POP POP JUMP JUMPDEST PUSH0 PUSH2 0x738 DUP3 PUSH2 0x55A JUMP JUMPDEST SWAP2 POP PUSH32 0xFFFFFFFFFFFFFFFFFFFFFFFFFFFFFFFFFFFFFFFFFFFFFFFFFFFFFFFFFFFFFFFF DUP3 SUB PUSH2 0x76A JUMPI PUSH2 0x769 PUSH2 0x6CE JUMP JUMPDEST JUMPDEST PUSH1 0x1 DUP3 ADD SWAP1 POP SWAP2 SWAP1 POP JUMP INVALID LOG2 PUSH5 0x6970667358 0x22 SLT KECCAK256 0xD8 DUP6 SELFDESTRUCT JUMPF 0x4C2C SWAP14 DUP15 DUP7 0xE8 0xAC 0x28 0xAE SMOD 0x4B RJUMPI 0x2C46 0x22 COINBASE 0x2D PUSH26 0xF844322346E010E9D96064736F6C634300081E00330000000000 "
				},
				"gasEstimates": {
					"creation": {
						"codeDepositCost": "392600",
						"executionCost": "428",
						"totalCost": "393028"
					},
					"external": {
						"EvenUpTo(uint256)": "infinite",
						"ageBasedAccess(uint256)": "infinite",
						"gradeEval(uint256)": "infinite",
						"speedChecker(uint256)": "infinite",
						"sum(uint256)": "infinite",
						"temperatureChecker(int256)": "infinite"
					}
				},
				"methodIdentifiers": {
					"EvenUpTo(uint256)": "18794df5",
					"ageBasedAccess(uint256)": "a655916d",
					"gradeEval(uint256)": "12b8396b",
					"speedChecker(uint256)": "cc04364c",
					"sum(uint256)": "188b85b4",
					"temperatureChecker(int256)": "8e4198ba"
				}
			},
			"storageLayout": {
				"storage": [],
				"types": null
			},
			"userdoc": {
				"kind": "user",
				"methods": {},
				"version": 1
			}
		}
	}
}