{
	"Day4.sol": {
		"Day4": {
			"abi": [
				{
					"inputs": [
						{
							"internalType": "int256",
							"name": "num1",
							"type": "int256"
						},
						{
							"internalType": "int256",
							"name": "num2",
							"type": "int256"
						},
						{
							"internalType": "int256",
							"name": "num3",
							"type": "int256"
						}
					],
					"name": "ave3",
					"outputs": [
						{
							"internalType": "int256",
							"name": "",
							"type": "int256"
						}
					],
					"stateMutability": "pure",
					"type": "function"
				},
				{
					"inputs": [
						{
							"internalType": "uint256",
							"name": "cel",
							"type": "uint256"
						}
					],
					"name": "cToF",
					"outputs": [
						{
							"internalType": "uint256",
							"name": "",
							"type": "uint256"
						}
					],
					"stateMutability": "pure",
					"type": "function"
				},
				{
					"inputs": [
						{
							"internalType": "uint256",
							"name": "eth",
							"type": "uint256"
						}
					],
					"name": "etherToDollars",
					"outputs": [
						{
							"internalType": "uint256",
							"name": "",
							"type": "uint256"
						}
					],
					"stateMutability": "pure",
					"type": "function"
				},
				{
					"inputs": [
						{
							"internalType": "uint256",
							"name": "hour",
							"type": "uint256"
						}
					],
					"name": "hoursToSec",
					"outputs": [
						{
							"internalType": "uint256",
							"name": "",
							"type": "uint256"
						}
					],
					"stateMutability": "pure",
					"type": "function"
				}
			],
			"devdoc": {
				"kind": "dev",
				"methods": {},
				"version": 1
			},
			"evm": {
				"assembly": "    /* \"Day4.sol\":62:499  contract Day4{... */\n  mstore(0x40, 0x80)\n  callvalue\n  dup1\n  iszero\n  tag_1\n  jumpi\n  revert(0x00, 0x00)\ntag_1:\n  pop\n  dataSize(sub_0)\n  dup1\n  dataOffset(sub_0)\n  0x00\n  codecopy\n  0x00\n  return\nstop\n\nsub_0: assembly {\n        /* \"Day4.sol\":62:499  contract Day4{... */\n      mstore(0x40, 0x80)\n      callvalue\n      dup1\n      iszero\n      tag_1\n      jumpi\n      revert(0x00, 0x00)\n    tag_1:\n      pop\n      jumpi(tag_2, lt(calldatasize, 0x04))\n      shr(0xe0, calldataload(0x00))\n      dup1\n      0x049131fd\n      eq\n      tag_3\n      jumpi\n      dup1\n      0x552e2ab2\n      eq\n      tag_4\n      jumpi\n      dup1\n      0x580cdcc8\n      eq\n      tag_5\n      jumpi\n      dup1\n      0xde4edb13\n      eq\n      tag_6\n      jumpi\n    tag_2:\n      revert(0x00, 0x00)\n        /* \"Day4.sol\":282:393  function ave3(int num1, int num2,int num3) public pure returns(int){... */\n    tag_3:\n      tag_7\n      0x04\n      dup1\n      calldatasize\n      sub\n      dup2\n      add\n      swap1\n      tag_8\n      swap2\n      swap1\n      tag_9\n      jump\t// in\n    tag_8:\n      tag_10\n      jump\t// in\n    tag_7:\n      mload(0x40)\n      tag_11\n      swap2\n      swap1\n      tag_12\n      jump\t// in\n    tag_11:\n      mload(0x40)\n      dup1\n      swap2\n      sub\n      swap1\n      return\n        /* \"Day4.sol\":183:274  function hoursToSec (uint hour) public pure returns (uint){... */\n    tag_4:\n      tag_13\n      0x04\n      dup1\n      calldatasize\n      sub\n      dup2\n      add\n      swap1\n      tag_14\n      swap2\n      swap1\n      tag_15\n      jump\t// in\n    tag_14:\n      tag_16\n      jump\t// in\n    tag_13:\n      mload(0x40)\n      tag_17\n      swap2\n      swap1\n      tag_18\n      jump\t// in\n    tag_17:\n      mload(0x40)\n      dup1\n      swap2\n      sub\n      swap1\n      return\n        /* \"Day4.sol\":401:494  function etherToDollars(uint eth) public pure returns(uint){... */\n    tag_5:\n      tag_19\n      0x04\n      dup1\n      calldatasize\n      sub\n      dup2\n      add\n      swap1\n      tag_20\n      swap2\n      swap1\n      tag_15\n      jump\t// in\n    tag_20:\n      tag_21\n      jump\t// in\n    tag_19:\n      mload(0x40)\n      tag_22\n      swap2\n      swap1\n      tag_18\n      jump\t// in\n    tag_22:\n      mload(0x40)\n      dup1\n      swap2\n      sub\n      swap1\n      return\n        /* \"Day4.sol\":82:175  function cToF(uint cel) public pure returns(uint){... */\n    tag_6:\n      tag_23\n      0x04\n      dup1\n      calldatasize\n      sub\n      dup2\n      add\n      swap1\n      tag_24\n      swap2\n      swap1\n      tag_15\n      jump\t// in\n    tag_24:\n      tag_25\n      jump\t// in\n    tag_23:\n      mload(0x40)\n      tag_26\n      swap2\n      swap1\n      tag_18\n      jump\t// in\n    tag_26:\n      mload(0x40)\n      dup1\n      swap2\n      sub\n      swap1\n      return\n        /* \"Day4.sol\":282:393  function ave3(int num1, int num2,int num3) public pure returns(int){... */\n    tag_10:\n        /* \"Day4.sol\":345:348  int */\n      0x00\n        /* \"Day4.sol\":384:385  3 */\n      0x03\n        /* \"Day4.sol\":378:382  num3 */\n      dup3\n        /* \"Day4.sol\":373:377  num2 */\n      dup5\n        /* \"Day4.sol\":368:372  num1 */\n      dup7\n        /* \"Day4.sol\":368:377  num1+num2 */\n      tag_28\n      swap2\n      swap1\n      tag_29\n      jump\t// in\n    tag_28:\n        /* \"Day4.sol\":368:382  num1+num2+num3 */\n      tag_30\n      swap2\n      swap1\n      tag_29\n      jump\t// in\n    tag_30:\n        /* \"Day4.sol\":367:385  (num1+num2+num3)/3 */\n      tag_31\n      swap2\n      swap1\n      tag_32\n      jump\t// in\n    tag_31:\n        /* \"Day4.sol\":360:385  return (num1+num2+num3)/3 */\n      swap1\n      pop\n        /* \"Day4.sol\":282:393  function ave3(int num1, int num2,int num3) public pure returns(int){... */\n      swap4\n      swap3\n      pop\n      pop\n      pop\n      jump\t// out\n        /* \"Day4.sol\":183:274  function hoursToSec (uint hour) public pure returns (uint){... */\n    tag_16:\n        /* \"Day4.sol\":236:240  uint */\n      0x00\n        /* \"Day4.sol\":264:266  60 */\n      0x3c\n        /* \"Day4.sol\":259:263  hour */\n      dup3\n        /* \"Day4.sol\":259:266  hour*60 */\n      tag_34\n      swap2\n      swap1\n      tag_35\n      jump\t// in\n    tag_34:\n        /* \"Day4.sol\":252:266  return hour*60 */\n      swap1\n      pop\n        /* \"Day4.sol\":183:274  function hoursToSec (uint hour) public pure returns (uint){... */\n      swap2\n      swap1\n      pop\n      jump\t// out\n        /* \"Day4.sol\":401:494  function etherToDollars(uint eth) public pure returns(uint){... */\n    tag_21:\n        /* \"Day4.sol\":455:459  uint */\n      0x00\n        /* \"Day4.sol\":482:486  2970 */\n      0x0b9a\n        /* \"Day4.sol\":478:481  eth */\n      dup3\n        /* \"Day4.sol\":478:486  eth*2970 */\n      tag_37\n      swap2\n      swap1\n      tag_35\n      jump\t// in\n    tag_37:\n        /* \"Day4.sol\":471:486  return eth*2970 */\n      swap1\n      pop\n        /* \"Day4.sol\":401:494  function etherToDollars(uint eth) public pure returns(uint){... */\n      swap2\n      swap1\n      pop\n      jump\t// out\n        /* \"Day4.sol\":82:175  function cToF(uint cel) public pure returns(uint){... */\n    tag_25:\n        /* \"Day4.sol\":126:130  uint */\n      0x00\n        /* \"Day4.sol\":165:167  32 */\n      0x20\n        /* \"Day4.sol\":161:162  5 */\n      0x05\n        /* \"Day4.sol\":156:157  9 */\n      0x09\n        /* \"Day4.sol\":150:153  cel */\n      dup5\n        /* \"Day4.sol\":150:157  cel * 9 */\n      tag_39\n      swap2\n      swap1\n      tag_35\n      jump\t// in\n    tag_39:\n        /* \"Day4.sol\":149:162  (cel * 9) / 5 */\n      tag_40\n      swap2\n      swap1\n      tag_41\n      jump\t// in\n    tag_40:\n        /* \"Day4.sol\":149:167  (cel * 9) / 5 + 32 */\n      tag_42\n      swap2\n      swap1\n      tag_43\n      jump\t// in\n    tag_42:\n        /* \"Day4.sol\":142:167  return (cel * 9) / 5 + 32 */\n      swap1\n      pop\n        /* \"Day4.sol\":82:175  function cToF(uint cel) public pure returns(uint){... */\n      swap2\n      swap1\n      pop\n      jump\t// out\n        /* \"#utility.yul\":88:205   */\n    tag_45:\n        /* \"#utility.yul\":197:198   */\n      0x00\n        /* \"#utility.yul\":194:195   */\n      0x00\n        /* \"#utility.yul\":187:199   */\n      revert\n        /* \"#utility.yul\":334:410   */\n    tag_47:\n        /* \"#utility.yul\":370:377   */\n      0x00\n        /* \"#utility.yul\":399:404   */\n      dup2\n        /* \"#utility.yul\":388:404   */\n      swap1\n      pop\n        /* \"#utility.yul\":334:410   */\n      swap2\n      swap1\n      pop\n      jump\t// out\n        /* \"#utility.yul\":416:536   */\n    tag_48:\n        /* \"#utility.yul\":488:511   */\n      tag_63\n        /* \"#utility.yul\":505:510   */\n      dup2\n        /* \"#utility.yul\":488:511   */\n      tag_47\n      jump\t// in\n    tag_63:\n        /* \"#utility.yul\":481:486   */\n      dup2\n        /* \"#utility.yul\":478:512   */\n      eq\n        /* \"#utility.yul\":468:530   */\n      tag_64\n      jumpi\n        /* \"#utility.yul\":526:527   */\n      0x00\n        /* \"#utility.yul\":523:524   */\n      0x00\n        /* \"#utility.yul\":516:528   */\n      revert\n        /* \"#utility.yul\":468:530   */\n    tag_64:\n        /* \"#utility.yul\":416:536   */\n      pop\n      jump\t// out\n        /* \"#utility.yul\":542:679   */\n    tag_49:\n        /* \"#utility.yul\":587:592   */\n      0x00\n        /* \"#utility.yul\":625:631   */\n      dup2\n        /* \"#utility.yul\":612:632   */\n      calldataload\n        /* \"#utility.yul\":603:632   */\n      swap1\n      pop\n        /* \"#utility.yul\":641:673   */\n      tag_66\n        /* \"#utility.yul\":667:672   */\n      dup2\n        /* \"#utility.yul\":641:673   */\n      tag_48\n      jump\t// in\n    tag_66:\n        /* \"#utility.yul\":542:679   */\n      swap3\n      swap2\n      pop\n      pop\n      jump\t// out\n        /* \"#utility.yul\":685:1298   */\n    tag_9:\n        /* \"#utility.yul\":759:765   */\n      0x00\n        /* \"#utility.yul\":767:773   */\n      0x00\n        /* \"#utility.yul\":775:781   */\n      0x00\n        /* \"#utility.yul\":824:826   */\n      0x60\n        /* \"#utility.yul\":812:821   */\n      dup5\n        /* \"#utility.yul\":803:810   */\n      dup7\n        /* \"#utility.yul\":799:822   */\n      sub\n        /* \"#utility.yul\":795:827   */\n      slt\n        /* \"#utility.yul\":792:911   */\n      iszero\n      tag_68\n      jumpi\n        /* \"#utility.yul\":830:909   */\n      tag_69\n      tag_45\n      jump\t// in\n    tag_69:\n        /* \"#utility.yul\":792:911   */\n    tag_68:\n        /* \"#utility.yul\":950:951   */\n      0x00\n        /* \"#utility.yul\":975:1027   */\n      tag_70\n        /* \"#utility.yul\":1019:1026   */\n      dup7\n        /* \"#utility.yul\":1010:1016   */\n      dup3\n        /* \"#utility.yul\":999:1008   */\n      dup8\n        /* \"#utility.yul\":995:1017   */\n      add\n        /* \"#utility.yul\":975:1027   */\n      tag_49\n      jump\t// in\n    tag_70:\n        /* \"#utility.yul\":965:1027   */\n      swap4\n      pop\n        /* \"#utility.yul\":921:1037   */\n      pop\n        /* \"#utility.yul\":1076:1078   */\n      0x20\n        /* \"#utility.yul\":1102:1154   */\n      tag_71\n        /* \"#utility.yul\":1146:1153   */\n      dup7\n        /* \"#utility.yul\":1137:1143   */\n      dup3\n        /* \"#utility.yul\":1126:1135   */\n      dup8\n        /* \"#utility.yul\":1122:1144   */\n      add\n        /* \"#utility.yul\":1102:1154   */\n      tag_49\n      jump\t// in\n    tag_71:\n        /* \"#utility.yul\":1092:1154   */\n      swap3\n      pop\n        /* \"#utility.yul\":1047:1164   */\n      pop\n        /* \"#utility.yul\":1203:1205   */\n      0x40\n        /* \"#utility.yul\":1229:1281   */\n      tag_72\n        /* \"#utility.yul\":1273:1280   */\n      dup7\n        /* \"#utility.yul\":1264:1270   */\n      dup3\n        /* \"#utility.yul\":1253:1262   */\n      dup8\n        /* \"#utility.yul\":1249:1271   */\n      add\n        /* \"#utility.yul\":1229:1281   */\n      tag_49\n      jump\t// in\n    tag_72:\n        /* \"#utility.yul\":1219:1281   */\n      swap2\n      pop\n        /* \"#utility.yul\":1174:1291   */\n      pop\n        /* \"#utility.yul\":685:1298   */\n      swap3\n      pop\n      swap3\n      pop\n      swap3\n      jump\t// out\n        /* \"#utility.yul\":1304:1419   */\n    tag_50:\n        /* \"#utility.yul\":1389:1412   */\n      tag_74\n        /* \"#utility.yul\":1406:1411   */\n      dup2\n        /* \"#utility.yul\":1389:1412   */\n      tag_47\n      jump\t// in\n    tag_74:\n        /* \"#utility.yul\":1384:1387   */\n      dup3\n        /* \"#utility.yul\":1377:1413   */\n      mstore\n        /* \"#utility.yul\":1304:1419   */\n      pop\n      pop\n      jump\t// out\n        /* \"#utility.yul\":1425:1643   */\n    tag_12:\n        /* \"#utility.yul\":1516:1520   */\n      0x00\n        /* \"#utility.yul\":1554:1556   */\n      0x20\n        /* \"#utility.yul\":1543:1552   */\n      dup3\n        /* \"#utility.yul\":1539:1557   */\n      add\n        /* \"#utility.yul\":1531:1557   */\n      swap1\n      pop\n        /* \"#utility.yul\":1567:1636   */\n      tag_76\n        /* \"#utility.yul\":1633:1634   */\n      0x00\n        /* \"#utility.yul\":1622:1631   */\n      dup4\n        /* \"#utility.yul\":1618:1635   */\n      add\n        /* \"#utility.yul\":1609:1615   */\n      dup5\n        /* \"#utility.yul\":1567:1636   */\n      tag_50\n      jump\t// in\n    tag_76:\n        /* \"#utility.yul\":1425:1643   */\n      swap3\n      swap2\n      pop\n      pop\n      jump\t// out\n        /* \"#utility.yul\":1649:1726   */\n    tag_51:\n        /* \"#utility.yul\":1686:1693   */\n      0x00\n        /* \"#utility.yul\":1715:1720   */\n      dup2\n        /* \"#utility.yul\":1704:1720   */\n      swap1\n      pop\n        /* \"#utility.yul\":1649:1726   */\n      swap2\n      swap1\n      pop\n      jump\t// out\n        /* \"#utility.yul\":1732:1854   */\n    tag_52:\n        /* \"#utility.yul\":1805:1829   */\n      tag_79\n        /* \"#utility.yul\":1823:1828   */\n      dup2\n        /* \"#utility.yul\":1805:1829   */\n      tag_51\n      jump\t// in\n    tag_79:\n        /* \"#utility.yul\":1798:1803   */\n      dup2\n        /* \"#utility.yul\":1795:1830   */\n      eq\n        /* \"#utility.yul\":1785:1848   */\n      tag_80\n      jumpi\n        /* \"#utility.yul\":1844:1845   */\n      0x00\n        /* \"#utility.yul\":1841:1842   */\n      0x00\n        /* \"#utility.yul\":1834:1846   */\n      revert\n        /* \"#utility.yul\":1785:1848   */\n    tag_80:\n        /* \"#utility.yul\":1732:1854   */\n      pop\n      jump\t// out\n        /* \"#utility.yul\":1860:1999   */\n    tag_53:\n        /* \"#utility.yul\":1906:1911   */\n      0x00\n        /* \"#utility.yul\":1944:1950   */\n      dup2\n        /* \"#utility.yul\":1931:1951   */\n      calldataload\n        /* \"#utility.yul\":1922:1951   */\n      swap1\n      pop\n        /* \"#utility.yul\":1960:1993   */\n      tag_82\n        /* \"#utility.yul\":1987:1992   */\n      dup2\n        /* \"#utility.yul\":1960:1993   */\n      tag_52\n      jump\t// in\n    tag_82:\n        /* \"#utility.yul\":1860:1999   */\n      swap3\n      swap2\n      pop\n      pop\n      jump\t// out\n        /* \"#utility.yul\":2005:2334   */\n    tag_15:\n        /* \"#utility.yul\":2064:2070   */\n      0x00\n        /* \"#utility.yul\":2113:2115   */\n      0x20\n        /* \"#utility.yul\":2101:2110   */\n      dup3\n        /* \"#utility.yul\":2092:2099   */\n      dup5\n        /* \"#utility.yul\":2088:2111   */\n      sub\n        /* \"#utility.yul\":2084:2116   */\n      slt\n        /* \"#utility.yul\":2081:2200   */\n      iszero\n      tag_84\n      jumpi\n        /* \"#utility.yul\":2119:2198   */\n      tag_85\n      tag_45\n      jump\t// in\n    tag_85:\n        /* \"#utility.yul\":2081:2200   */\n    tag_84:\n        /* \"#utility.yul\":2239:2240   */\n      0x00\n        /* \"#utility.yul\":2264:2317   */\n      tag_86\n        /* \"#utility.yul\":2309:2316   */\n      dup5\n        /* \"#utility.yul\":2300:2306   */\n      dup3\n        /* \"#utility.yul\":2289:2298   */\n      dup6\n        /* \"#utility.yul\":2285:2307   */\n      add\n        /* \"#utility.yul\":2264:2317   */\n      tag_53\n      jump\t// in\n    tag_86:\n        /* \"#utility.yul\":2254:2317   */\n      swap2\n      pop\n        /* \"#utility.yul\":2210:2327   */\n      pop\n        /* \"#utility.yul\":2005:2334   */\n      swap3\n      swap2\n      pop\n      pop\n      jump\t// out\n        /* \"#utility.yul\":2340:2458   */\n    tag_54:\n        /* \"#utility.yul\":2427:2451   */\n      tag_88\n        /* \"#utility.yul\":2445:2450   */\n      dup2\n        /* \"#utility.yul\":2427:2451   */\n      tag_51\n      jump\t// in\n    tag_88:\n        /* \"#utility.yul\":2422:2425   */\n      dup3\n        /* \"#utility.yul\":2415:2452   */\n      mstore\n        /* \"#utility.yul\":2340:2458   */\n      pop\n      pop\n      jump\t// out\n        /* \"#utility.yul\":2464:2686   */\n    tag_18:\n        /* \"#utility.yul\":2557:2561   */\n      0x00\n        /* \"#utility.yul\":2595:2597   */\n      0x20\n        /* \"#utility.yul\":2584:2593   */\n      dup3\n        /* \"#utility.yul\":2580:2598   */\n      add\n        /* \"#utility.yul\":2572:2598   */\n      swap1\n      pop\n        /* \"#utility.yul\":2608:2679   */\n      tag_90\n        /* \"#utility.yul\":2676:2677   */\n      0x00\n        /* \"#utility.yul\":2665:2674   */\n      dup4\n        /* \"#utility.yul\":2661:2678   */\n      add\n        /* \"#utility.yul\":2652:2658   */\n      dup5\n        /* \"#utility.yul\":2608:2679   */\n      tag_54\n      jump\t// in\n    tag_90:\n        /* \"#utility.yul\":2464:2686   */\n      swap3\n      swap2\n      pop\n      pop\n      jump\t// out\n        /* \"#utility.yul\":2692:2872   */\n    tag_55:\n        /* \"#utility.yul\":2740:2817   */\n      0x4e487b7100000000000000000000000000000000000000000000000000000000\n        /* \"#utility.yul\":2737:2738   */\n      0x00\n        /* \"#utility.yul\":2730:2818   */\n      mstore\n        /* \"#utility.yul\":2837:2841   */\n      0x11\n        /* \"#utility.yul\":2834:2835   */\n      0x04\n        /* \"#utility.yul\":2827:2842   */\n      mstore\n        /* \"#utility.yul\":2861:2865   */\n      0x24\n        /* \"#utility.yul\":2858:2859   */\n      0x00\n        /* \"#utility.yul\":2851:2866   */\n      revert\n        /* \"#utility.yul\":2878:3253   */\n    tag_29:\n        /* \"#utility.yul\":2917:2920   */\n      0x00\n        /* \"#utility.yul\":2936:2955   */\n      tag_93\n        /* \"#utility.yul\":2953:2954   */\n      dup3\n        /* \"#utility.yul\":2936:2955   */\n      tag_47\n      jump\t// in\n    tag_93:\n        /* \"#utility.yul\":2931:2955   */\n      swap2\n      pop\n        /* \"#utility.yul\":2969:2988   */\n      tag_94\n        /* \"#utility.yul\":2986:2987   */\n      dup4\n        /* \"#utility.yul\":2969:2988   */\n      tag_47\n      jump\t// in\n    tag_94:\n        /* \"#utility.yul\":2964:2988   */\n      swap3\n      pop\n        /* \"#utility.yul\":3011:3012   */\n      dup3\n        /* \"#utility.yul\":3008:3009   */\n      dup3\n        /* \"#utility.yul\":3004:3013   */\n      add\n        /* \"#utility.yul\":2997:3013   */\n      swap1\n      pop\n        /* \"#utility.yul\":3209:3210   */\n      dup3\n        /* \"#utility.yul\":3204:3207   */\n      dup2\n        /* \"#utility.yul\":3200:3211   */\n      slt\n        /* \"#utility.yul\":3193:3212   */\n      iszero\n        /* \"#utility.yul\":3189:3190   */\n      0x00\n        /* \"#utility.yul\":3186:3187   */\n      dup4\n        /* \"#utility.yul\":3182:3191   */\n      slt\n        /* \"#utility.yul\":3178:3213   */\n      and\n        /* \"#utility.yul\":3161:3162   */\n      dup4\n        /* \"#utility.yul\":3156:3159   */\n      dup3\n        /* \"#utility.yul\":3152:3163   */\n      slt\n        /* \"#utility.yul\":3147:3148   */\n      0x00\n        /* \"#utility.yul\":3144:3145   */\n      dup5\n        /* \"#utility.yul\":3140:3149   */\n      slt\n        /* \"#utility.yul\":3133:3150   */\n      iszero\n        /* \"#utility.yul\":3129:3164   */\n      and\n        /* \"#utility.yul\":3113:3223   */\n      or\n        /* \"#utility.yul\":3110:3246   */\n      iszero\n      tag_95\n      jumpi\n        /* \"#utility.yul\":3226:3244   */\n      tag_96\n      tag_55\n      jump\t// in\n    tag_96:\n        /* \"#utility.yul\":3110:3246   */\n    tag_95:\n        /* \"#utility.yul\":2878:3253   */\n      swap3\n      swap2\n      pop\n      pop\n      jump\t// out\n        /* \"#utility.yul\":3259:3439   */\n    tag_56:\n        /* \"#utility.yul\":3307:3384   */\n      0x4e487b7100000000000000000000000000000000000000000000000000000000\n        /* \"#utility.yul\":3304:3305   */\n      0x00\n        /* \"#utility.yul\":3297:3385   */\n      mstore\n        /* \"#utility.yul\":3404:3408   */\n      0x12\n        /* \"#utility.yul\":3401:3402   */\n      0x04\n        /* \"#utility.yul\":3394:3409   */\n      mstore\n        /* \"#utility.yul\":3428:3432   */\n      0x24\n        /* \"#utility.yul\":3425:3426   */\n      0x00\n        /* \"#utility.yul\":3418:3433   */\n      revert\n        /* \"#utility.yul\":3445:3830   */\n    tag_32:\n        /* \"#utility.yul\":3484:3485   */\n      0x00\n        /* \"#utility.yul\":3501:3520   */\n      tag_99\n        /* \"#utility.yul\":3518:3519   */\n      dup3\n        /* \"#utility.yul\":3501:3520   */\n      tag_47\n      jump\t// in\n    tag_99:\n        /* \"#utility.yul\":3496:3520   */\n      swap2\n      pop\n        /* \"#utility.yul\":3534:3553   */\n      tag_100\n        /* \"#utility.yul\":3551:3552   */\n      dup4\n        /* \"#utility.yul\":3534:3553   */\n      tag_47\n      jump\t// in\n    tag_100:\n        /* \"#utility.yul\":3529:3553   */\n      swap3\n      pop\n        /* \"#utility.yul\":3572:3573   */\n      dup3\n        /* \"#utility.yul\":3562:3597   */\n      tag_101\n      jumpi\n        /* \"#utility.yul\":3577:3595   */\n      tag_102\n      tag_56\n      jump\t// in\n    tag_102:\n        /* \"#utility.yul\":3562:3597   */\n    tag_101:\n        /* \"#utility.yul\":3763:3764   */\n      0x01\n        /* \"#utility.yul\":3760:3761   */\n      0x00\n        /* \"#utility.yul\":3756:3765   */\n      sub\n        /* \"#utility.yul\":3753:3754   */\n      dup4\n        /* \"#utility.yul\":3750:3766   */\n      eq\n        /* \"#utility.yul\":3669:3735   */\n      0x8000000000000000000000000000000000000000000000000000000000000000\n        /* \"#utility.yul\":3666:3667   */\n      dup4\n        /* \"#utility.yul\":3663:3736   */\n      eq\n        /* \"#utility.yul\":3646:3776   */\n      and\n        /* \"#utility.yul\":3643:3799   */\n      iszero\n      tag_103\n      jumpi\n        /* \"#utility.yul\":3779:3797   */\n      tag_104\n      tag_55\n      jump\t// in\n    tag_104:\n        /* \"#utility.yul\":3643:3799   */\n    tag_103:\n        /* \"#utility.yul\":3822:3823   */\n      dup3\n        /* \"#utility.yul\":3819:3820   */\n      dup3\n        /* \"#utility.yul\":3814:3824   */\n      sdiv\n        /* \"#utility.yul\":3809:3824   */\n      swap1\n      pop\n        /* \"#utility.yul\":3445:3830   */\n      swap3\n      swap2\n      pop\n      pop\n      jump\t// out\n        /* \"#utility.yul\":3836:4246   */\n    tag_35:\n        /* \"#utility.yul\":3876:3883   */\n      0x00\n        /* \"#utility.yul\":3899:3919   */\n      tag_106\n        /* \"#utility.yul\":3917:3918   */\n      dup3\n        /* \"#utility.yul\":3899:3919   */\n      tag_51\n      jump\t// in\n    tag_106:\n        /* \"#utility.yul\":3894:3919   */\n      swap2\n      pop\n        /* \"#utility.yul\":3933:3953   */\n      tag_107\n        /* \"#utility.yul\":3951:3952   */\n      dup4\n        /* \"#utility.yul\":3933:3953   */\n      tag_51\n      jump\t// in\n    tag_107:\n        /* \"#utility.yul\":3928:3953   */\n      swap3\n      pop\n        /* \"#utility.yul\":3988:3989   */\n      dup3\n        /* \"#utility.yul\":3985:3986   */\n      dup3\n        /* \"#utility.yul\":3981:3990   */\n      mul\n        /* \"#utility.yul\":4010:4040   */\n      tag_108\n        /* \"#utility.yul\":4028:4039   */\n      dup2\n        /* \"#utility.yul\":4010:4040   */\n      tag_51\n      jump\t// in\n    tag_108:\n        /* \"#utility.yul\":3999:4040   */\n      swap2\n      pop\n        /* \"#utility.yul\":4189:4190   */\n      dup3\n        /* \"#utility.yul\":4180:4187   */\n      dup3\n        /* \"#utility.yul\":4176:4191   */\n      div\n        /* \"#utility.yul\":4173:4174   */\n      dup5\n        /* \"#utility.yul\":4170:4192   */\n      eq\n        /* \"#utility.yul\":4150:4151   */\n      dup4\n        /* \"#utility.yul\":4143:4152   */\n      iszero\n        /* \"#utility.yul\":4123:4206   */\n      or\n        /* \"#utility.yul\":4100:4239   */\n      tag_109\n      jumpi\n        /* \"#utility.yul\":4219:4237   */\n      tag_110\n      tag_55\n      jump\t// in\n    tag_110:\n        /* \"#utility.yul\":4100:4239   */\n    tag_109:\n        /* \"#utility.yul\":3884:4246   */\n      pop\n        /* \"#utility.yul\":3836:4246   */\n      swap3\n      swap2\n      pop\n      pop\n      jump\t// out\n        /* \"#utility.yul\":4252:4437   */\n    tag_41:\n        /* \"#utility.yul\":4292:4293   */\n      0x00\n        /* \"#utility.yul\":4309:4329   */\n      tag_112\n        /* \"#utility.yul\":4327:4328   */\n      dup3\n        /* \"#utility.yul\":4309:4329   */\n      tag_51\n      jump\t// in\n    tag_112:\n        /* \"#utility.yul\":4304:4329   */\n      swap2\n      pop\n        /* \"#utility.yul\":4343:4363   */\n      tag_113\n        /* \"#utility.yul\":4361:4362   */\n      dup4\n        /* \"#utility.yul\":4343:4363   */\n      tag_51\n      jump\t// in\n    tag_113:\n        /* \"#utility.yul\":4338:4363   */\n      swap3\n      pop\n        /* \"#utility.yul\":4382:4383   */\n      dup3\n        /* \"#utility.yul\":4372:4407   */\n      tag_114\n      jumpi\n        /* \"#utility.yul\":4387:4405   */\n      tag_115\n      tag_56\n      jump\t// in\n    tag_115:\n        /* \"#utility.yul\":4372:4407   */\n    tag_114:\n        /* \"#utility.yul\":4429:4430   */\n      dup3\n        /* \"#utility.yul\":4426:4427   */\n      dup3\n        /* \"#utility.yul\":4422:4431   */\n      div\n        /* \"#utility.yul\":4417:4431   */\n      swap1\n      pop\n        /* \"#utility.yul\":4252:4437   */\n      swap3\n      swap2\n      pop\n      pop\n      jump\t// out\n        /* \"#utility.yul\":4443:4634   */\n    tag_43:\n        /* \"#utility.yul\":4483:4486   */\n      0x00\n        /* \"#utility.yul\":4502:4522   */\n      tag_117\n        /* \"#utility.yul\":4520:4521   */\n      dup3\n        /* \"#utility.yul\":4502:4522   */\n      tag_51\n      jump\t// in\n    tag_117:\n        /* \"#utility.yul\":4497:4522   */\n      swap2\n      pop\n        /* \"#utility.yul\":4536:4556   */\n      tag_118\n        /* \"#utility.yul\":4554:4555   */\n      dup4\n        /* \"#utility.yul\":4536:4556   */\n      tag_51\n      jump\t// in\n    tag_118:\n        /* \"#utility.yul\":4531:4556   */\n      swap3\n      pop\n        /* \"#utility.yul\":4579:4580   */\n      dup3\n        /* \"#utility.yul\":4576:4577   */\n      dup3\n        /* \"#utility.yul\":4572:4581   */\n      add\n        /* \"#utility.yul\":4565:4581   */\n      swap1\n      pop\n        /* \"#utility.yul\":4600:4603   */\n      dup1\n        /* \"#utility.yul\":4597:4598   */\n      dup3\n        /* \"#utility.yul\":4594:4604   */\n      gt\n        /* \"#utility.yul\":4591:4627   */\n      iszero\n      tag_119\n      jumpi\n        /* \"#utility.yul\":4607:4625   */\n      tag_120\n      tag_55\n      jump\t// in\n    tag_120:\n        /* \"#utility.yul\":4591:4627   */\n    tag_119:\n        /* \"#utility.yul\":4443:4634   */\n      swap3\n      swap2\n      pop\n      pop\n      jump\t// out\n\n    auxdata: 0xa264697066735822122049132b780e7aa9f09aa75e461f74010dbf99d39c8f0844b79f04cb317b8f78ea64736f6c634300081e0033\n}\n",
				"bytecode": {
					"linkReferences": {},
					"object": "6080604052348015600e575f5ffd5b506104a58061001c5f395ff3fe608060405234801561000f575f5ffd5b506004361061004a575f3560e01c8063049131fd1461004e578063552e2ab21461007e578063580cdcc8146100ae578063de4edb13146100de575b5f5ffd5b610068600480360381019061006391906101ca565b61010e565b6040516100759190610229565b60405180910390f35b61009860048036038101906100939190610275565b61013b565b6040516100a591906102af565b60405180910390f35b6100c860048036038101906100c39190610275565b610150565b6040516100d591906102af565b60405180910390f35b6100f860048036038101906100f39190610275565b610166565b60405161010591906102af565b60405180910390f35b5f600382848661011e91906102f5565b61012891906102f5565b6101329190610363565b90509392505050565b5f603c8261014991906103cb565b9050919050565b5f610b9a8261015f91906103cb565b9050919050565b5f6020600560098461017891906103cb565b610182919061040c565b61018c919061043c565b9050919050565b5f5ffd5b5f819050919050565b6101a981610197565b81146101b3575f5ffd5b50565b5f813590506101c4816101a0565b92915050565b5f5f5f606084860312156101e1576101e0610193565b5b5f6101ee868287016101b6565b93505060206101ff868287016101b6565b9250506040610210868287016101b6565b9150509250925092565b61022381610197565b82525050565b5f60208201905061023c5f83018461021a565b92915050565b5f819050919050565b61025481610242565b811461025e575f5ffd5b50565b5f8135905061026f8161024b565b92915050565b5f6020828403121561028a57610289610193565b5b5f61029784828501610261565b91505092915050565b6102a981610242565b82525050565b5f6020820190506102c25f8301846102a0565b92915050565b7f4e487b71000000000000000000000000000000000000000000000000000000005f52601160045260245ffd5b5f6102ff82610197565b915061030a83610197565b92508282019050828112155f8312168382125f8412151617156103305761032f6102c8565b5b92915050565b7f4e487b71000000000000000000000000000000000000000000000000000000005f52601260045260245ffd5b5f61036d82610197565b915061037883610197565b92508261038857610387610336565b5b60015f0383147f8000000000000000000000000000000000000000000000000000000000000000831416156103c0576103bf6102c8565b5b828205905092915050565b5f6103d582610242565b91506103e083610242565b92508282026103ee81610242565b91508282048414831517610405576104046102c8565b5b5092915050565b5f61041682610242565b915061042183610242565b92508261043157610430610336565b5b828204905092915050565b5f61044682610242565b915061045183610242565b9250828201905080821115610469576104686102c8565b5b9291505056fea264697066735822122049132b780e7aa9f09aa75e461f74010dbf99d39c8f0844b79f04cb317b8f78ea64736f6c634300081e0033",
					"opcodes": "PUSH1 0x80 PUSH1 0x40 MSTORE CALLVALUE DUP1 ISZERO PUSH1 0xE JUMPI PUSH0 PUSH0 REVERT JUMPDEST POP PUSH2 0x4A5 DUP1 PUSH2 0x1C PUSH0 CODECOPY PUSH0 RETURN INVALID PUSH1 0x80 PUSH1 0x40 MSTORE CALLVALUE DUP1 ISZERO PUSH2 0xF JUMPI PUSH0 PUSH0 REVERT JUMPDEST POP PUSH1 0x4 CALLDATASIZE LT PUSH2 0x4A JUMPI PUSH0 CALLDATALOAD PUSH1 0xE0 SHR DUP1 PUSH4 0x49131FD EQ PUSH2 0x4E JUMPI DUP1 PUSH4 0x552E2AB2 EQ PUSH2 0x7E JUMPI DUP1 PUSH4 0x580CDCC8 EQ PUSH2 0xAE JUMPI DUP1 PUSH4 0xDE4EDB13 EQ PUSH2 0xDE JUMPI JUMPDEST PUSH0 PUSH0 REVERT JUMPDEST PUSH2 0x68 PUSH1 0x4 DUP1 CALLDATASIZE SUB DUP2 ADD SWAP1 PUSH2 0x63 SWAP2 SWAP1 PUSH2 0x1CA JUMP JUMPDEST PUSH2 0x10E JUMP JUMPDEST PUSH1 0x40 MLOAD PUSH2 0x75 SWAP2 SWAP1 PUSH2 0x229 JUMP JUMPDEST PUSH1 0x40 MLOAD DUP1 SWAP2 SUB SWAP1 RETURN JUMPDEST PUSH2 0x98 PUSH1 0x4 DUP1 CALLDATASIZE SUB DUP2 ADD SWAP1 PUSH2 0x93 SWAP2 SWAP1 PUSH2 0x275 JUMP JUMPDEST PUSH2 0x13B JUMP JUMPDEST PUSH1 0x40 MLOAD PUSH2 0xA5 SWAP2 SWAP1 PUSH2 0x2AF JUMP JUMPDEST PUSH1 0x40 MLOAD DUP1 SWAP2 SUB SWAP1 RETURN JUMPDEST PUSH2 0xC8 PUSH1 0x4 DUP1 CALLDATASIZE SUB DUP2 ADD SWAP1 PUSH2 0xC3 SWAP2 SWAP1 PUSH2 0x275 JUMP JUMPDEST PUSH2 0x150 JUMP JUMPDEST PUSH1 0x40 MLOAD PUSH2 0xD5 SWAP2 SWAP1 PUSH2 0x2AF JUMP JUMPDEST PUSH1 0x40 MLOAD DUP1 SWAP2 SUB SWAP1 RETURN JUMPDEST PUSH2 0xF8 PUSH1 0x4 DUP1 CALLDATASIZE SUB DUP2 ADD SWAP1 PUSH2 0xF3 SWAP2 SWAP1 PUSH2 0x275 JUMP JUMPDEST PUSH2 0x166 JUMP JUMPDEST PUSH1 0x40 MLOAD PUSH2 0x105 SWAP2 SWAP1 PUSH2 0x2AF JUMP JUMPDEST PUSH1 0x40 MLOAD DUP1 SWAP2 SUB SWAP1 RETURN JUMPDEST PUSH0 PUSH1 0x3 DUP3 DUP5 DUP7 PUSH2 0x11E SWAP2 SWAP1 PUSH2 0x2F5 JUMP JUMPDEST PUSH2 0x128 SWAP2 SWAP1 PUSH2 0x2F5 JUMP JUMPDEST PUSH2 0x132 SWAP2 SWAP1 PUSH2 0x363 JUMP JUMPDEST SWAP1 POP SWAP4 SWAP3 POP POP POP JUMP JUMPDEST PUSH0 PUSH1 0x3C DUP3 PUSH2 0x149 SWAP2 SWAP1 PUSH2 0x3CB JUMP JUMPDEST SWAP1 POP SWAP2 SWAP1 POP JUMP JUMPDEST PUSH0 PUSH2 0xB9A DUP3 PUSH2 0x15F SWAP2 SWAP1 PUSH2 0x3CB JUMP JUMPDEST SWAP1 POP SWAP2 SWAP1 POP JUMP JUMPDEST PUSH0 PUSH1 0x20 PUSH1 0x5 PUSH1 0x9 DUP5 PUSH2 0x178 SWAP2 SWAP1 PUSH2 0x3CB JUMP JUMPDEST PUSH2 0x182 SWAP2 SWAP1 PUSH2 0x40C JUMP JUMPDEST PUSH2 0x18C SWAP2 SWAP1 PUSH2 0x43C JUMP JUMPDEST SWAP1 POP SWAP2 SWAP1 POP JUMP JUMPDEST PUSH0 PUSH0 REVERT JUMPDEST PUSH0 DUP2 SWAP1 POP SWAP2 SWAP1 POP JUMP JUMPDEST PUSH2 0x1A9 DUP2 PUSH2 0x197 JUMP JUMPDEST DUP2 EQ PUSH2 0x1B3 JUMPI PUSH0 PUSH0 REVERT JUMPDEST POP JUMP JUMPDEST PUSH0 DUP2 CALLDATALOAD SWAP1 POP PUSH2 0x1C4 DUP2 PUSH2 0x1A0 JUMP JUMPDEST SWAP3 SWAP2 POP POP JUMP JUMPDEST PUSH0 PUSH0 PUSH0 PUSH1 0x60 DUP5 DUP7 SUB SLT ISZERO PUSH2 0x1E1 JUMPI PUSH2 0x1E0 PUSH2 0x193 JUMP JUMPDEST JUMPDEST PUSH0 PUSH2 0x1EE DUP7 DUP3 DUP8 ADD PUSH2 0x1B6 JUMP JUMPDEST SWAP4 POP POP PUSH1 0x20 PUSH2 0x1FF DUP7 DUP3 DUP8 ADD PUSH2 0x1B6 JUMP JUMPDEST SWAP3 POP POP PUSH1 0x40 PUSH2 0x210 DUP7 DUP3 DUP8 ADD PUSH2 0x1B6 JUMP JUMPDEST SWAP2 POP POP SWAP3 POP SWAP3 POP SWAP3 JUMP JUMPDEST PUSH2 0x223 DUP2 PUSH2 0x197 JUMP JUMPDEST DUP3 MSTORE POP POP JUMP JUMPDEST PUSH0 PUSH1 0x20 DUP3 ADD SWAP1 POP PUSH2 0x23C PUSH0 DUP4 ADD DUP5 PUSH2 0x21A JUMP JUMPDEST SWAP3 SWAP2 POP POP JUMP JUMPDEST PUSH0 DUP2 SWAP1 POP SWAP2 SWAP1 POP JUMP JUMPDEST PUSH2 0x254 DUP2 PUSH2 0x242 JUMP JUMPDEST DUP2 EQ PUSH2 0x25E JUMPI PUSH0 PUSH0 REVERT JUMPDEST POP JUMP JUMPDEST PUSH0 DUP2 CALLDATALOAD SWAP1 POP PUSH2 0x26F DUP2 PUSH2 0x24B JUMP JUMPDEST SWAP3 SWAP2 POP POP JUMP JUMPDEST PUSH0 PUSH1 0x20 DUP3 DUP5 SUB SLT ISZERO PUSH2 0x28A JUMPI PUSH2 0x289 PUSH2 0x193 JUMP JUMPDEST JUMPDEST PUSH0 PUSH2 0x297 DUP5 DUP3 DUP6 ADD PUSH2 0x261 JUMP JUMPDEST SWAP2 POP POP SWAP3 SWAP2 POP POP JUMP JUMPDEST PUSH2 0x2A9 DUP2 PUSH2 0x242 JUMP JUMPDEST DUP3 MSTORE POP POP JUMP JUMPDEST PUSH0 PUSH1 0x20 DUP3 ADD SWAP1 POP PUSH2 0x2C2 PUSH0 DUP4 ADD DUP5 PUSH2 0x2A0 JUMP JUMPDEST SWAP3 SWAP2 POP POP JUMP JUMPDEST PUSH32 0x4E487B7100000000000000000000000000000000000000000000000000000000 PUSH0 MSTORE PUSH1 0x11 PUSH1 0x4 MSTORE PUSH1 0x24 PUSH0 REVERT JUMPDEST PUSH0 PUSH2 0x2FF DUP3 PUSH2 0x197 JUMP JUMPDEST SWAP2 POP PUSH2 0x30A DUP4 PUSH2 0x197 JUMP JUMPDEST SWAP3 POP DUP3 DUP3 ADD SWAP1 POP DUP3 DUP2 SLT ISZERO PUSH0 DUP4 SLT AND DUP4 DUP3 SLT PUSH0 DUP5 SLT ISZERO AND OR ISZERO PUSH2 0x330 JUMPI PUSH2 0x32F PUSH2 0x2C8 JUMP JUMPDEST JUMPDEST SWAP3 SWAP2 POP POP JUMP JUMPDEST PUSH32 0x4E487B7100000000000000000000000000000000000000000000000000000000 PUSH0 MSTORE PUSH1 0x12 PUSH1 0x4 MSTORE PUSH1 0x24 PUSH0 REVERT JUMPDEST PUSH0 PUSH2 0x36D DUP3 PUSH2 0x197 JUMP JUMPDEST SWAP2 POP PUSH2 0x378 DUP4 PUSH2 0x197 JUMP JUMPDEST SWAP3 POP DUP3 PUSH2 0x388 JUMPI PUSH2 0x387 PUSH2 0x336 JUMP JUMPDEST JUMPDEST PUSH1 0x1 PUSH0 SUB DUP4 EQ PUSH32 0x8000000000000000000000000000000000000000000000000000000000000000 DUP4 EQ AND ISZERO PUSH2 0x3C0 JUMPI PUSH2 0x3BF PUSH2 0x2C8 JUMP JUMPDEST JUMPDEST DUP3 DUP3 SDIV SWAP1 POP SWAP3 SWAP2 POP POP JUMP JUMPDEST PUSH0 PUSH2 0x3D5 DUP3 PUSH2 0x242 JUMP JUMPDEST SWAP2 POP PUSH2 0x3E0 DUP4 PUSH2 0x242 JUMP JUMPDEST SWAP3 POP DUP3 DUP3 MUL PUSH2 0x3EE DUP2 PUSH2 0x242 JUMP JUMPDEST SWAP2 POP DUP3 DUP3 DIV DUP5 EQ DUP4 ISZERO OR PUSH2 0x405 JUMPI PUSH2 0x404 PUSH2 0x2C8 JUMP JUMPDEST JUMPDEST POP SWAP3 SWAP2 POP POP JUMP JUMPDEST PUSH0 PUSH2 0x416 DUP3 PUSH2 0x242 JUMP JUMPDEST SWAP2 POP PUSH2 0x421 DUP4 PUSH2 0x242 JUMP JUMPDEST SWAP3 POP DUP3 PUSH2 0x431 JUMPI PUSH2 0x430 PUSH2 0x336 JUMP JUMPDEST JUMPDEST DUP3 DUP3 DIV SWAP1 POP SWAP3 SWAP2 POP POP JUMP JUMPDEST PUSH0 PUSH2 0x446 DUP3 PUSH2 0x242 JUMP JUMPDEST SWAP2 POP PUSH2 0x451 DUP4 PUSH2 0x242 JUMP JUMPDEST SWAP3 POP DUP3 DUP3 ADD SWAP1 POP DUP1 DUP3 GT ISZERO PUSH2 0x469 JUMPI PUSH2 0x468 PUSH2 0x2C8 JUMP JUMPDEST JUMPDEST SWAP3 SWAP2 POP POP JUMP INVALID LOG2 PUSH5 0x6970667358 0x22 SLT KECCAK256 BLOBHASH SGT 0x2B PUSH25 0xE7AA9F09AA75E461F74010DBF99D39C8F0844B79F04CB317B DUP16 PUSH25 0xEA64736F6C634300081E003300000000000000000000000000 "
				},
				"gasEstimates": {
					"creation": {
						"codeDepositCost": "237800",
						"executionCost": "279",
						"totalCost": "238079"
					},
					"external": {
						"ave3(int256,int256,int256)": "infinite",
						"cToF(uint256)": "infinite",
						"etherToDollars(uint256)": "infinite",
						"hoursToSec(uint256)": "infinite"
					}
				},
				"methodIdentifiers": {
					"ave3(int256,int256,int256)": "049131fd",
					"cToF(uint256)": "de4edb13",
					"etherToDollars(uint256)": "580cdcc8",
					"hoursToSec(uint256)": "552e2ab2"
				}
			},
			"storageLayout": {
				"storage": [],
				"types": null
			},
			"userdoc": {
				"kind": "user",
				"methods": {},
				"version": 1
			}
		}
	}
}